:020000040040BA
:1000000018A34420B55B4000A95D4000355D400069
:10001000F55D4000495D4000415E40000000000089
:10002000000000000000000000000000795F4000B8
:10003000815E400000000000C56140002962400070
:100040005D5D40005D5D40005D5D40005D5D4000C8
:100050005D5D40005D5D40005D5D40005D5D4000B8
:100060005D5D4000000000005D5D40005D5D4000A2
:100070005D5D40005D5D4000995740005D5D400062
:100080005D5D40005D5D40005D5D40005D5D400088
:100090005D5D4000654D40005D5D40005D5D400080
:1000A0005D5D40005D5D40005D5D40005D5D400068
:1000B0005D5D40005D5D40005D5D40005D5D400058
:1000C0005D5D40005D5D40005D5D40005D5D400048
:1000D0005D5D40005D5D40005D5D40005D5D400038
:1000E0005D5D40005D5D40005D5D40005D5D400028
:1000F0005D5D40005D5D40005D5D40005D5D400018
:100100005D5D40005D5D40005D5D40005D5D400007
:100110005D5D40005D5D40000000000000000000EB
:100120005D5D40005D5D40005D5D40005D5D4000E7
:100130005D5D40005D5D4000000000005D5D4000D1
:100140005D5D40005D5D40005D5D40005D5D4000C7
:100150005D5D40005D5D40005D5D40005D5D4000B7
:100160005D5D40005D5D40000348044B834202D06A
:10017000034B03B1184770471476410014764100D1
:10018000000000000548064B1B1AD90F01EBA30124
:10019000491002D0034B03B1184770471476410051
:1001A000147641000000000010B5064C237843B9D6
:1001B000FFF7DAFF044B13B10448AFF300800123CB
:1001C000237010BD10024020000000001476410092
:1001D00008B5054B1BB105490548AFF30080BDE8E4
:1001E0000840FFF7CFBF00BF00000000140240200E
:1001F0001476410080B582B000AF78607B6814331C
:10020000184601F025FB7B6803F6545318460DF0A1
:10021000C1FC7A68044B1344184606F07FFC00BF0B
:100220000837BD4680BD00BFE853020080B582B0EC
:1002300000AF78600EF0B4FA00BF0837BD4680BD4D
:1002400080B582B000AF78607B68DB69184603F048
:10025000ABF87B685B6A184600F0BAF800BF083755
:10026000BD4680BD80B584B000AF78607B681B68F8
:100270000C331B687A6864211046984700F08AFBAB
:100280007B681B6A184608F07BF87B681B6A184677
:1002900008F05AF90346FB607B685B6A184600F079
:1002A00025F90346FB6007F10C0318460EF0C1FF69
:1002B0000346002B02D01B4810F07CFB7B6898693A
:1002C0007B681B6A0222194602F008F80346FB60AD
:1002D00007F10C0318460EF0ACFF0346002B02D0CA
:1002E000114810F067FB7B68DA697B681B6A194666
:1002F000104603F093F80346FB6007F10C03184621
:100300000EF097FF0346002B02D0084810F052FB76
:100310007B681B680C331B687A6840F2E731104633
:100320009847F5E7502D4100782D4100A42D41005C
:1003300080B582B000AF786039603B68002B02D096
:1003400038680DF056FA00BF0837BD4680BD80B54D
:1003500082B000AF786079680020FFF7E9FF0837C6
:10036000BD4680BD80B483B000AF7860024B1846B4
:100370000C37BD4680BC70474F03400080B584B049
:1003800000AFF860B9607A60BB68002B03D0796871
:10039000B8680DF01FFA00BF1037BD4680BD80B5AC
:1003A00082B000AF786039603A6879680020FFF762
:1003B000E5FF0837BD4680BD80B483B000AF7860EC
:1003C000024B18460C37BD4680BC70479F03400067
:1003D000B0B584B000AF78607B68DC6807F10803D3
:1003E0001846FFF7BFFF054607F10C031846FFF755
:1003F000E3FF03462A467968204601F0CFFE00BF9E
:100400001037BD46B0BD000080B584B000AF786045
:1004100039600DF051FA0346002B03D0314938689A
:1004200007F074FC7B685B6A1B6808331B687A689A
:10043000526A3968104698470346FB73FB7B83F08A
:100440000103DBB2002B0BD07B689B6A1B6808336F
:100450001B687A68926A3968104698470346FB73AE
:10046000FB7B83F00103DBB2002B07D07B682C33CE
:100470003968184603F0FCFA0346FB73FB7B83F0F4
:100480000103DBB2002B08D07B6803F2E443396838
:10049000184603F0B3FB0346FB73FB7B83F00103B9
:1004A000DBB2002B0BD07B681B6A1B6808331B6810
:1004B0007A68126A3968104698470346FB73FB7BDB
:1004C00083F00103DBB2002B07D038680EF0E0FBAD
:1004D00003461946044810F0FDF9FB7B1846103717
:1004E000BD4680BDF5374000CC2D410080B588B0B9
:1004F00002AF78607B685B6907F110022321184620
:1005000007F0FCFF0346FB603B69FB75FB7D022B9C
:100510001BD0022B03DC002B03D0012B0BD00023BC
:10052000FB757B68586AF97D262300932D232A22C8
:1005300000F002FE13E07B68586AF97D25230093E2
:100540002E23292200F0F8FD09E07B68586AF97D26
:10055000242300932C23282200F0EEFD00BFFB682B
:1005600018461837BD4680BD80B584B000AF7860AE
:1005700039607B689B68184607F082FF0346FB6082
:1005800007F10C0318460EF044FE0346002B03D07F
:10059000386807F091FC03E04D21386807F0C4FC8F
:1005A00000BF1037BD4680BD80B586B000AFF86093
:1005B000B9607A603B60FB689B6879683A68184666
:1005C00007F075FF03467B6107F1140318460EF030
:1005D00020FE0346002B06D07B683A681946B868AF
:1005E00007F08CFC0DE0FB689B681B680C331B68F4
:1005F000FA6892681046984703461946B86807F0AB
:1006000093FC00BF1837BD4680BD80B586B000AFF3
:10061000F860B9607A6000233B61FB689B68796889
:1006200007F11002184607F069FF03467B6107F1E6
:10063000140318460EF0EDFD0346002B06D07B6830
:100640003A691946B86807F059FC0DE0FB689B68E9
:100650001B680C331B68FA6892681046984703467B
:100660001946B86807F060FC00BF1837BD4680BD6A
:1006700080B582B000AF786039607B689B680549BF
:10068000184608F07FF8386807F016FC00BF0837F6
:10069000BD4680BDF02D410080B582B000AF7860CE
:1006A00039607B68D8687B689B680222194601F034
:1006B00015FE386807F000FC00BF0837BD4680BD56
:1006C00080B586B000AFF860B9607A603B60FB68C7
:1006D00098683B6802333A6A194607F0E8FE034619
:1006E0007B6107F1140318460EF093FD034683F077
:1006F0000103DBB2002B0ED0FB689B681B680C3338
:100700001B68FA6892681046984703461946B8680D
:1007100007F00AFC05E03B683A6A1946B86807F03A
:10072000EDFB00BF1837BD4680BD80B586B000AF79
:10073000F860B9607A603B6000233B61FB689868B1
:100740003B680233194607F110031A4607F0D6FE3C
:1007500003467B6107F1140318460EF05AFD034669
:1007600083F00103DBB2002B0ED0FB689B681B6893
:100770000C331B68FA68926810469847034619467E
:10078000B86807F0D1FB05E03B683A691946B868DC
:1007900007F0B4FB00BF1837BD4680BD80B584B0FC
:1007A00000AF786039607B689B68184607F0CCFE24
:1007B0000346FB6007F10C0318460EF02AFD0346C2
:1007C000002B03D0386807F077FB03E05821386826
:1007D00007F0AAFB00BF1037BD4680BD80B584B0CE
:1007E00000AF786039607B68DB6818460DF018FB55
:1007F000034618460DF055FC03460133FB60F968CB
:10080000386807F069FB00BF1037BD4680BD80B572
:1008100084B000AFF860B9607A607B68013B7B60B0
:10082000FB68DB6818460DF0FBFA02467B68DBB21A
:100830001946104601F036FE0346002B0FD0FB6828
:10084000DB6818460DF0ECFA034618460DF029FC5B
:10085000034601331946B86807F03EFB03E0632105
:10086000B86807F061FB00BF1037BD4680BD0000CF
:1008700080B582B000AF786039607B68DB6805497D
:10088000184601F0B5FC386807F016FB00BF0837C2
:10089000BD4680BD002E410080B582B000AF7860BB
:1008A00039607B68D8687B689B680222194601F032
:1008B00015FD386807F000FB00BF0837BD4680BD56
:1008C00080B586B000AFF860B9607A60FB681B69DC
:1008D0007A68D2B21146184601F0CCFF03467B611C
:1008E0007B687A691946B86807F008FB00BF1837BB
:1008F000BD4680BD80B586B000AFF860B9607A6053
:100900003B60FB6818697B68D9B23B68012201F043
:1009100018FF03467B617A693B689A4206D17B687F
:100920007A691946B86807F0E9FA04E07B69194664
:10093000B86807F0F9FA00BF1837BD4680BD80B52A
:1009400084B000AF786039607B689B68184607F018
:1009500055FE0346FB6007F10C0318460EF059FCE8
:100960000346002B03D0386807F0A6FA0DE07B6839
:100970009B681B680C331B687A689268104698471E
:1009800003461946386807F0CFFA00BF1037BD4656
:1009900080BD000080B500AF094810F00BF8094891
:1009A00010F008F8084810F005F8084810F002F8B0
:1009B00007480FF0FFFF02480FF0FCFF00BF80BDAB
:1009C000102E4100302E4100542E4100842E410053
:1009D000A82E410080B582B000AF78603960FFF783
:1009E000D9FF386807F068FA00BF0837BD4680BDF8
:1009F00080B582B000AF786039600C480FF06AFFB4
:100A00007B689B6B184600F07BFB7B685B6B184632
:100A100000F0CAFE7B689B6A184602F015FE386833
:100A200007F04AFA00BF0837BD4680BDC42E41001A
:100A300080B582B000AF7860396011480FF0BAFF1E
:100A40007B681B6A184601F0A9F87B689B6A184608
:100A500002F024FE7B685B6A184601F0DDFB7B68D0
:100A6000DB6A1B6808331B687A68D26A10469847AD
:100A7000386807F021FA00BF0837BD4680BD00BFC7
:100A8000CC2E410080B582B000AF78603960084854
:100A90000FF090FF7B68DB691B6818331B687A686E
:100AA000D2691046984700BF0837BD4680BD00BFD9
:100AB000E02E410090B583B000AF786039607B686C
:100AC00003F1080438680EF058F903461946204629
:100AD0000EF08AF87B6803F10804002138680EF0F4
:100AE000F1F80346194620460EF06CF80346002B39
:100AF00006D1002138680EF0FBF80346072B01D120
:100B0000012300E00023002B12D07B6803F10804CE
:100B1000012138680EF0ECF80346072B0CBF0123C7
:100B20000023DBB251221946204606F0A5F81FE04B
:100B3000012138680EF0DCF80346072B0CBF0123B7
:100B40000023DBB2002B0CD07B6803F108040021EA
:100B500038680EF0B7F803461946204606F048F903
:100B600006E07B68083351220021184606F084F81D
:100B7000386807F0A1F900BF0C37BD4690BD0000F2
:100B800080B582B000AF786039600B4B1B7883F082
:100B90000103DAB2084B1A70074B1B78002B01D007
:100BA000064B00E0064B194606480FF093FE00BFC7
:100BB0000837BD4680BD00BF04004020002F410023
:100BC000042F4100082F410080B586B000AFF860C7
:100BD000B9607A60FB689B6818460DF0B4FB034669
:100BE000796818460DF08AFBFB68DB687A68342167
:100BF000184607F05CFC03467B6107F114031846B6
:100C00000EF007FB0346002B04D07968B86807F0A4
:100C100063F90DE0FB68DB681B680C331B68FA683E
:100C2000D2681046984703461946B86807F07CF921
:100C300000BF1837BD4680BD80B586B000AFF860F4
:100C4000B9607A60FB689B6818460DF07CFB034630
:100C5000796818460DF05FFBFB68DB687A68352120
:100C6000184607F024FC03467B6107F1140318467D
:100C70000EF0CFFA0346002B04D07968B86807F06D
:100C80002BF90DE0FB68DB681B680C331B68FA6806
:100C9000D2681046984703461946B86807F044F9E9
:100CA00000BF1837BD4680BD80B586B000AFF86084
:100CB000B9607A60FB689B6818460DF039FB034603
:100CC000796818460DF08EFBFB68DB687A68362180
:100CD000184607F0ECFB03467B6107F11403184646
:100CE0000EF097FA0346002B04D07968B86807F035
:100CF000F3F80DE0FB68DB681B680C331B68FA68CF
:100D0000D2681046984703461946B86807F00CF9B0
:100D100000BF1837BD4680BD80B586B000AFF86013
:100D2000B9607A60FB689B6818460DF001FB0346CA
:100D3000796818460DF063FBFB68DB687A68372139
:100D4000184607F0B4FB03467B6107F1140318460D
:100D50000EF05FFA0346002B04D07968B86807F0FC
:100D6000BBF80DE0FB68DB681B680C331B68FA6896
:100D7000D2681046984703461946B86807F0D4F879
:100D800000BF1837BD4680BD80B584B000AF786025
:100D900039607B68DB6807F108022321184607F0F9
:100DA000ADFB0346FB6007F10C0318460EF031FA69
:100DB0000346002B04D0BB68002B01D1012300E0C7
:100DC0000023002B04D00649386807F0C1F803E07F
:100DD0000449386807F0BCF800BF1037BD4680BD35
:100DE000242F4100342F410080B584B000AF7860DB
:100DF00039607B68DB6807F108022321184607F099
:100E00007DFB0346FB6007F10C0318460EF001FA68
:100E10000346002B04D0BB68002B01D1012300E066
:100E20000023002B04D00649386807F091F803E04E
:100E30000449386807F08CF800BF1037BD4680BD04
:100E4000242F4100342F410080B58CB000AF786072
:100E500039607B68DB6807F118022321184607F028
:100E60004DFB0346FB6107F11C0318460EF0D1F958
:100E70000346002B04D0BB69002B01D1012300E005
:100E80000023002B73D000237B6100233B610023F0
:100E9000FB607B68DB6807F114023821184607F015
:100EA0002DFB03463B6207F1200318460EF0B1F913
:100EB0000346002B25D07B68DB6807F1100239213F
:100EC000184607F01BFB03467B6207F12403184614
:100ED0000EF09FF90346002B13D07B68DB6807F107
:100EE0000C023A21184607F009FB0346BB6207F1E2
:100EF000280318460EF08DF90346002B01D001237C
:100F000000E00023002B09D07B6803F178007B69A7
:100F100019463B69DAB2FB6801F0ECFE7B6803F12D
:100F200078027B6893F8B4341946104600F0B6F89E
:100F30007B6878333968184601F02AFF0346FB6264
:100F400007F12C0318460EF064F90346002B03D07A
:100F5000386806F0A3FF0EE07B68103318460DF0EA
:100F6000B7F903461946386806F0DEFF03E0044986
:100F7000386806F0EDFF00BF3037BD4680BD00BFCA
:100F8000342F410080B586B000AF786039607B684F
:100F9000DB6807F10C022321184607F0AFFA03467D
:100FA0003B6107F1100318460EF033F90346002B9E
:100FB00004D0FB68002B01D1012300E00023002BAB
:100FC00028D07B6803F110027B6893F8B43419468B
:100FD000104600F063F87B681033396818460DF04E
:100FE00031F903467B6107F1140318460EF011F93D
:100FF0000346002B03D0386806F050FF0EE07B68F4
:10100000103318460DF064F903461946386806F0A7
:101010008BFF03E00349386806F09AFF00BF1837DA
:10102000BD4680BD342F410080B582B000AF7860EE
:1010300039607B681033184602F00CF97B6878330E
:10104000184601F03DFE386806F036FF00BF08374D
:10105000BD4680BD80B582B000AF786039607B68E6
:1010600093F8B43483F00103DAB27B6883F8B424D4
:101070007B6893F8B434002B01D0054B00E0054B9E
:10108000194605480FF026FC00BF0837BD4680BD55
:10109000482F41004C2F4100502F410080B483B0B5
:1010A00000AF78600B46FB707B68FA781A7100BF5E
:1010B0000C37BD4680BC704780B483B000AF034698
:1010C000FB71FB79022B0AD0022B0ADC002B02D029
:1010D000012B02D005E0064B04E0064B02E0064B74
:1010E00000E0064B18460C37BD4680BC704700BF79
:1010F000702F4100782F4100802F4100882F410040
:1011000090B583B000AF78607B6893F820301846C4
:10111000FFF7D2FF04467B689B6918460CF0FBFC86
:1011200003461A46214603480FF0D4FB00BF0C3794
:10113000BD4690BD8C2F410080B58AB000AF78606D
:10114000084611461A460346FB700B46BB70134611
:101150007B70FB78194678680CF014FCFA78012350
:10116000232178680CF01DFC03463B6107F1100356
:1011700018460EF04EF8034687F8273097F82730C8
:1011800007F10C02B97878680CF039FC03467B61F2
:1011900007F1140318460EF03CF8034687F8273091
:1011A0007B68DB69FA68114618460CF08FFC97F8EB
:1011B000273007F10C02797878680CF020FC0346A0
:1011C000BB6107F1180318460EF023F8034687F8B1
:1011D00027307B68DB69FA68D2B2114618460CF0FA
:1011E00067FC97F8273007F10C0297F83010786801
:1011F0000CF005FC0346FB6107F11C0318460EF0DA
:1012000008F8034687F827307B689B69FA6811461F
:1012100018460CF073FC7B689B69184600F026FBAF
:1012200097F8272007F12003114618460DF0B7FF65
:101230003B6A18462837BD4680BD80B586B002AFF0
:1012400078603960242300932C23282202217868B7
:10125000FFF772FF0346FB6007F10C0318460DF021
:10126000D8FF0346002B03D0386806F025FE0DE0BA
:101270007B685B691B680C331B687A68526910468F
:10128000984703461946386806F04EFE00BF1037EF
:10129000BD4680BD80B586B002AF78603960262338
:1012A00000932D232A2200217868FFF745FF03468B
:1012B000FB6007F10C0318460DF0ABFF0346002B53
:1012C00003D0386806F0F8FD0DE07B685B691B68A9
:1012D0000C331B687A6852691046984703461946D2
:1012E000386806F021FE00BF1037BD4680BD80B5CE
:1012F00086B002AF78603960252300932E2329221F
:1013000001217868FFF718FF0346FB6007F10C0323
:1013100018460DF07EFF0346002B03D0386806F018
:10132000CBFD0DE07B685B691B680C331B687A683A
:1013300052691046984703461946386806F0F4FD8E
:1013400000BF1037BD4680BD80B586B000AFF860E5
:10135000B9607A60FB689B697A68114618460CF0A0
:10136000CDFBFB685B697A682621184607F09FF879
:1013700003467B6107F1140318460DF04AFF03464C
:10138000002B04D07968B86806F0A6FD0DE0FB6874
:101390005B691B680C331B68FA68526910469847F2
:1013A00003461946B86806F0BFFD00BF1837BD46B2
:1013B00080BD80B586B000AFF860B9607A60FB6828
:1013C0009B697A68114618460CF098FBFB685B69CC
:1013D0007A682421184607F06AF803467B6107F112
:1013E000140318460DF015FF0346002B04D079684E
:1013F000B86806F071FD0DE0FB685B691B680C3393
:101400001B68FA6852691046984703461946B8683F
:1014100006F08AFD00BF1837BD4680BD80B586B096
:1014200000AFF860B9607A60FB68DB6979681846DC
:101430000CF04CFBFB685B697A682821184607F0C2
:1014400036F803467B6107F1140318460DF0E1FE00
:101450000346002B04D07968B86806F03DFD0DE026
:10146000FB685B691B680C331B68FA68526910469D
:10147000984703461946B86806F056FD00BF18376E
:10148000BD4680BD80B584B000AFF860B9607A60B9
:101490007B68044A044905480FF01CFA00BF103766
:1014A000BD4680BDA42F4100B82F4100F02F410060
:1014B00080B586B000AFF860B9607A60FB689B6960
:1014C0007A68114618460CF019FBFB685B697A686C
:1014D0002521184606F0EBFF03467B6107F1140354
:1014E00018460DF096FE0346002B04D07968B868C4
:1014F00006F0F2FC0DE0FB685B691B680C331B68AF
:10150000FA6852691046984703461946B86806F0CB
:101510000BFD00BF1837BD4680BD80B584B000AF5D
:10152000786039607B6802221A767B68D8687B68AD
:101530001B7E1A462C2106F0BAFF0346FB6007F11A
:101540000C0318460DF065FE0346002B03D03868E7
:1015500006F0B2FC0DE07B68DB681B680C331B688F
:101560007A68D2681046984703461946386806F0EC
:10157000DBFC00BF1037BD4680BD80B584B000AF36
:10158000786039607B6803221A767B68D8687B684C
:101590001B7E1A462C2106F08AFF0346FB6007F1EA
:1015A0000C0318460DF035FE0346002B03D03868B7
:1015B00006F082FC0DE07B68DB681B680C331B685F
:1015C0007A68D2681046984703461946386806F08C
:1015D000ABFC00BF1037BD4680BD80B584B000AF06
:1015E000786039607B6804221A767B68D8687B68EB
:1015F0001B7E1A462C2106F05AFF0346FB6007F1BA
:101600000C0318460DF005FE0346002B03D0386886
:1016100006F052FC0DE07B68DB681B680C331B682E
:101620007A68D2681046984703461946386806F02B
:101630007BFC00BF1037BD4680BD000080B586B082
:1016400002AFF860B9607A603B603B680193064B7B
:1016500000937B68054A064906480FF03BF900BF36
:101660001037BD4680BD00BF48304100FC2F41000F
:10167000043041003430410080B584B000AF786060
:1016800039607B6898687B68197E7B68DA6900231B
:1016900000F01CFC0346FB6007F10C0318460DF03C
:1016A000B8FD0346002B03D0386806F005FC0CE0BB
:1016B0007B681B7E19467B68DB691A4605480FF07C
:1016C00009F96321386806F02FFC00BF1037BD46CA
:1016D00080BD00BF5030410080B584B000AF78605D
:1016E00039607B6898687B68197E7B68DA690023BB
:1016F00000F0ECFB0346FB6007F10C0318460DF00D
:1017000088FD0346002B08D07B689B68184600F0D4
:1017100065FB386806F0D0FB0CE07B681B7E194641
:101720007B68DB691A4605480FF0D4F863213868F6
:1017300006F0FAFB00BF1037BD4680BD50304100B7
:1017400080B483B000AF0346FB71FB79042B16D045
:10175000042B16DC032B10D0032B12DC022B0AD037
:10176000022B0EDC002B02D0012B02D009E0084B2B
:1017700008E0084B06E0084B04E0084B02E0084B89
:1017800000E0084B18460C37BD4680BC704700BFD0
:1017900080304100843041008C3041009030410065
:1017A000943041009830410090B583B000AF78602C
:1017B0007B68DB69122B22D0122B2EDC002B02D08F
:1017C000112B0ED029E07B68DC697B681B7E1846F4
:1017D000FFF7B6FF03461A46214619480FF07AF87C
:1017E00029E07B68DC697B681B7E1846FFF7A8FF51
:1017F00003461A46214613480FF06CF81BE07B683D
:10180000DC697B681B7E1846FFF79AFF03461A4681
:1018100021460D480FF05EF80DE07B68DC697B68BF
:101820001B7E1846FFF78CFF03461A4621460748E1
:101830000FF050F800BF00BF0C37BD4690BD00BF91
:101840009C304100C0304100E4304100083141008B
:1018500080B483B000AF7860034A7B68136000BF38
:101860000C37BD4680BC70472C02402080B483B04A
:1018700000AF786000BF0C37BD4680BC704780B5B4
:1018800082B000AF78607B680433184602F0B0FD88
:1018900000F01CF87B680C33184600F0A8F87B6851
:1018A00003F21C43184603F0E7FA7B6803F5B263C2
:1018B000184603F0C7FF7A6841F2D4631344184610
:1018C00004F002FE00BF0837BD4680BD80B485B07D
:1018D00000AF3C4B5B6903F40033C3F34043DBB21E
:1018E000002B1BD1BFF34F8F00BFBFF36F8F00BF23
:1018F000344B0022C3F85022BFF34F8F00BFBFF319
:101900006F8F00BF2F4B5B692E4A43F40033536146
:10191000BFF34F8F00BFBFF36F8F00E000BF294BB5
:101920005B6903F48033C3F30043DBB2002B42D185
:10193000244B0022C3F88420BFF34F8F00BF214BFC
:10194000D3F88030FB60FB685B0BC3F30E03BB6016
:10195000FB68DB08C3F309037B60BB685A0143F6ED
:10196000E07313407A68920716491343C1F8603256
:101970007B685A1E7A60002B14BF01230023DBB260
:10198000002BEAD1BB685A1EBA60002B14BF01239A
:101990000023DBB2002BDBD1BFF34F8F00BF094B1D
:1019A0005B69084A43F480335361BFF34F8F00BF34
:1019B000BFF36F8F00E000BF00BF1437BD4680BC8F
:1019C000704700BF00ED00E080B582B000AF7860E6
:1019D0007B6803F21C43184603F02EFA7B680C3335
:1019E000184600F0ADF800BF0837BD4680BD80B591
:1019F00082B000AF786000F00DF803F011F87B685A
:101A00001B6810331B6800217868984700BF0837AF
:101A1000BD4680BD80B400AF094BD3F81431084AED
:101A200043F01003C2F81431054BD3F81431044AC3
:101A300043F48053C2F8143100BFBD4680BC7047E8
:101A40000080084090B589B000AF78600B46FB700D
:101A50000023FB777B6804337B617B69BB617B6917
:101A600003F20C433B611DE0BB69FB60FB681B6834
:101A700008331C68FB7F5A1CFA77FA781946F86815
:101A8000A0470346BB6007F1080318460DF0D1FBE1
:101A90000346002B03D00DF0A3FB03460AE0BB690D
:101AA0001C33BB61BA693B699A42DDD10DF08BFBF7
:101AB000034600BF18462437BD4690BD80B588B0A8
:101AC00000AFF860B9607A60FB680433BB61BB6942
:101AD000FB61BB6903F20C437B610CE0FB693B617A
:101AE0007B68002B04D07B683A691146B868984738
:101AF000FB691C33FB61FA697B699A42EED10DF0F8
:101B000062FB034618462037BD4680BD80B483B0D3
:101B100000AF78600B46FB70FB78242B08D8FA786E
:101B20001346DB009B1A9B007A681344043301E0E0
:101B30007B68043318460C37BD4680BC70470000F4
:101B400080B586B000AF786013480EF033FF7B6835
:101B500004333B613B697B613B6903F20C43FB60EF
:101B600010E07B69BB60BB681B6828331B68B868E2
:101B700098470346002B02D0B86802F00FFF7B693C
:101B80001C337B617A69FB689A42EAD100BF00BFCF
:101B90001837BD4680BD00BF2831410080B586B0F2
:101BA00000AF7860134B1B68134A1268194613483C
:101BB0000EF090FE7A68124B13443B613B697B61E7
:101BC0003B694833FB600AE07B69BB60BB681B680C
:101BD00019460C480EF07EFE7B6904337B617A69FE
:101BE000FB689A42F0D108480EF0E4FE00BF1837B7
:101BF000BD4680BD340240203002402038314100D3
:101C000008400200543141005C31410080B58CB085
:101C100000AF786039606C4B1B6801336A4A13600F
:101C20003B685B78112B0FD83B685B781A46796864
:101C300049F20203134451F82330581C796849F2E1
:101C40000203134441F823003B685B78FB853B6843
:101C50009B88BB85FB8D013BFB85FB8D112B19D828
:101C6000FB8D9B030C337A681344BB62BB6A1B6811
:101C70005A1CBB6A1A603B681B78002B0AD0FB8D8C
:101C80009B0310337A6813447B627B6A1B685A1C7F
:101C90007B6A1A60FB8D0F2B3BD8F98D7A6849F26D
:101CA00014030B4452F823303B61BB8D3A699A42CE
:101CB00080F085803B699BB2BA8DD31ABB857B6867
:101CC00003F51033D3F8D020BB8D13447A6802F5A6
:101CD0001032C2F8D030BB8DB3F5805F6FD23B6855
:101CE0001B78002B06D17B6803F5103393F8D830AE
:101CF000002B64D0FA8DBB8D1203134402339B007A
:101D00007A681344FB60FB681B685A1CFB681A6006
:101D100055E0FB8D102B52D10CF01EF8BB8DB3F5A6
:101D2000805F0FD23B681B78002B0BD0BA8D274BFE
:101D300013449B007A6813443B623B6A1B685A1C3D
:101D40003B6A1A607B6803F51033D3F8D0301B0967
:101D50007A6802F51032C2F8D0307B6803F5103390
:101D6000D3F8D030B3F5805F19D27B6803F5103318
:101D7000D3F8D020164B13449B007A681344BB6100
:101D8000BB691B685A1CBB691A607A68114B134403
:101D90007B617B691B685A1C7B691A6008E07A6862
:101DA0000D4B1344FB61FB691B685A1CFB691A60ED
:101DB0007B6803F510331A460023C2F8D03000BF09
:101DC0003037BD4680BD00BF300240200200010018
:101DD000021001000C4004001040040080B48DB0DB
:101DE00000AF78600023FB627B6808333B623B6A8C
:101DF000BB623B6A03F50033FB611FE0BB6ABB615A
:101E0000BB697B617B697B627B6903F580433B61D6
:101E100007E07B6AFB60FB6800221A607B6A043380
:101E20007B627A6A3B699A42F3D1FB6A5A1CFA6276
:101E3000BA691360BB6A03F58043BB62BA6AFB6987
:101E40009A42DBD17B6803F510331A460023C2F8AF
:101E5000D03000BF3437BD4680BC704780B586B0F7
:101E600000AF786039600023FB754FF47A733B61F3
:101E70007B6803F51033D3F8D430002B12D07B6885
:101E800003F51033D3F8D4303A699A420AD97B6803
:101E900003F51033D3F8D4303A69D21A3B681A608C
:101EA0000123FB757B6803F510331A463B69C2F8C2
:101EB000D430FA7D07F10C03114618460DF06FF986
:101EC000FB6818461837BD4680BD000080B59AB043
:101ED00002AFF8607A603B600B46FB727B68122BA6
:101EE000D4BF0123002387F85F3097F85F30002BC1
:101EF00000F0EC807B68DBB2013B87F84F30FB7A67
:101F0000032B00F08D80032B00F3D780012B02D030
:101F1000022B32D0D1E07B68002B40F3D28097F8BF
:101F20004F301946F8680BF0ADFEB8620323BB656D
:101F30001BE0BB6D9B00BA6A13441B687B620023E5
:101F40007B650BE0BB6D3B623B6A002B03D0396ABB
:101F500065480EF0BFFC7B6D01337B657A6D7B6A53
:101F60009A42EFD3BB6D0133BB65BB6DB3F5805FA8
:101F7000DFD35E480EF01EFDA3E07B68002B40F32C
:101F8000A280FB681B6818460BF00DFE78633B6867
:101F9000002B17D13B461946F868FFF75FFF034651
:101FA0007B6107F1140318460DF033F90346002B4B
:101FB00013D097F84F3001331A46796B4C480EF026
:101FC00089FC0AE03B687A6BB2FBF3F197F84F307B
:101FD00001331A4647480EF07DFC97F84F301946FA
:101FE000F8680BF04FFE386303233B6510E03B6D50
:101FF0009B003A6B13441B68FB62FB6A002B04D006
:10200000FA6A396D3C480EF065FC3B6D01333B6567
:102010003B6DB3F5805FEAD338480EF0CBFC52E05D
:102020000BF088FEB864FB681B6818460BF0BBFD1C
:102030007864FB685B6818460BF0FDFE03461846A3
:102040000BF091FF38640CF04FF9F8630CF0FEF9D7
:10205000B8633B68002B1AD13B461946F868FFF776
:10206000FDFE0346BB6107F1180318460DF0D1F8D9
:102070000346002B29D0796C3A6CB86CBB6B01938A
:10208000FB6B009303461E480EF024FC1DE03B68EA
:102090007A6CB2FBF3F13B683A6CB2FBF3F03B684D
:1020A000BA6CB2FBF3F2BB6B0193FB6B009313466C
:1020B000024614480EF00EFC07E0002387F85F305C
:1020C00004E000BF02E000BF00E000BF97F85F201F
:1020D00007F11C03114618460DF061F8FB6918461C
:1020E0006037BD4680BD00BF603141005C314100BA
:1020F00064314100783141008C314100943141001C
:1021000098314100C831410080B58AB000AFF86015
:10211000B9601346FB71012387F82730002387F845
:10212000263025E0FA7997F8263013443B623B6A63
:1021300007F114021946B86806F0E0F90346BB61DE
:1021400007F1180318460DF064F8034687F82730A6
:1021500097F82730002B06D097F826307A69194671
:10216000F8680BF0D1FD97F82630013387F8263058
:1021700097F82730002B03D097F826300F2BD1D9B2
:1021800097F8272007F11C03114618460DF007F8B1
:10219000FB6918462837BD4680BD000080B584B075
:1021A00000AFF860B9607A603B600E4ABB681360AC
:1021B0000D4A7B681360FB6803F526730B4A1360B6
:1021C000FB6803F526733A68B968184600F002F90F
:1021D000FB680433184600F057F900BF1037BD46BE
:1021E00080BD00BF380240203C0240204002402019
:1021F00080B582B000AF78603960396805480EF06C
:1022000069FB7B680433184600F064F900BF0837A7
:10221000BD4680BDF831410080B582B000AF786026
:102220007B68D3F8BC127B68D3F8B8321A460948E9
:102230000EF050FB7B6803F52673184600F0F6F8A5
:102240007B680433184600F06FF900BF0837BD46BD
:1022500080BD00BF0032410080B582B000AF786021
:102260007B68181D47F662530122182100F069FAB5
:102270007B68012283F8C02200BF0837BD4680BDBD
:1022800080B582B000AF78607B68181D47F6615357
:102290000122182100F055FA7B68002283F8C02241
:1022A00000BF0837BD4680BD80B483B000AF786002
:1022B0007B68012283F8C12200BF0C37BD4680BC79
:1022C000704780B483B000AF78607B68002283F8E9
:1022D000C12200BF0C37BD4680BC704780B58AB0B4
:1022E00000AFF860B9607A60012387F827300023D7
:1022F00087F8263047E097F826307A6813443B6227
:1023000007F110031A46396AB86806F0F7F8034671
:102310007B6107F1140318460CF07BFF0346002B8A
:1023200022D0FB68181D3B6997F82610012200F0A7
:1023300008FA0346FB613B69FA699A421ED097F896
:102340002730002B08D0002387F827303B69FA6933
:1023500019461E480EF0BEFAFB68D3F8B8325A1C74
:10236000FB68C3F8B82209E0002387F82730FB6830
:10237000D3F8BC325A1CFB68C3F8BC2297F826304D
:10238000013387F8263097F826301B2BB3D997F8FE
:10239000273083F00103DBB2002B09D0FB68D3F8B0
:1023A000B812FB68D3F8BC321A4609480EF092FA0C
:1023B00097F8272007F11803114618460CF0EFFE96
:1023C000BB6918462837BD4680BD00BF203241009A
:1023D0006832410080B485B000AFF860B9607A60BF
:1023E000064AFB681360064ABB681360054A7B68AF
:1023F000136000BF1437BD4680BC70474C024020BC
:10240000440240204802402080B483B000AF78608E
:1024100000BF0C37BD4680BC704780B483B000AFAE
:10242000786000BF0C37BD4680BC7047F0B589B0FE
:1024300004AFF860FB681D69FB685E69FB681B6898
:10244000BB60F8680BF06AFD7860FB68DC69F868CF
:102450000BF07DFD0346002B01D0084B00E0084B3C
:10246000029301947B680093BB6832462946054875
:102470000EF030FA00BF1437BD46F0BDBC3241004B
:10248000C4324100D032410080B483B000AF7860E4
:10249000034A7B68136000BF0C37BD4680BC7047A1
:1024A0005002402080B485B000AF78600B46FB70CE
:1024B000FB78042B94BF01230023FB73FB7B002BD1
:1024C00002D07B68FA781A72FB7B18461437BD4637
:1024D00080BC704780B584B000AF78607B681B7AA1
:1024E000013319460E480EF0F5F90023FB730EE098
:1024F000FB7B1946786800F0BDF9B860FB7BBA68D1
:10250000194608480EF0E6F9FB7B0133FB73FB7BB1
:10251000202BEDD900BF00BF1037BD4680BD00BFE6
:10252000183341002433410090B5A5B000AF786066
:102530007B681B7A0133194617480EF0CBF907F177
:1025400008038422002118460EF0CEFB002387F8F2
:102550008F3012E097F88F4097F88F3019467868DF
:1025600000F088F90246A30090333B4443F8882CDE
:1025700097F88F30013387F88F3097F88F30202B02
:10258000E8D907F108032121184600F0E3F900BF5C
:102590009437BD4690BD00BF1833410090B585B05B
:1025A00000AF78600023FB730EE0FC7BFB7B1946D9
:1025B000786800F05FF901467A68A31C9B00134419
:1025C0005960FB7B0133FB73FB7B102BEDD90023A0
:1025D000BB7313E0BB7B7A6802339B0013445B68D8
:1025E000BB60BB6843F4FF53BB60B97BBB6802228E
:1025F000786800F0A6F8BB7B0133BB73BB7B102B64
:10260000E8D900BF00BF1437BD4690BD90B585B076
:1026100000AF78600023FB730EE0FC7BFB7B194668
:10262000786800F027F901467A68A31C9B001344E0
:102630005960FB7B0133FB73FB7B102BEDD900232F
:10264000BB7307E0BB7B1946786800F028F8BB7BBA
:102650000133BB73BB7B102BF4D900BF00BF143711
:10266000BD4690BD80B584B000AF78600023FB7399
:102670000DE0FB7B7A6802339B0013445B68F97BB7
:102680000222786800F05DF8FB7B0133FB73FB7B73
:10269000102BEED900BF00BF1037BD4680BD80B5FE
:1026A00082B000AF78600B46FB70FB78102B06D829
:1026B000F9784FF4FF530222786800F042F800BF27
:1026C0000837BD4680BD000080B582B000AF78609D
:1026D0000B46FB70FB78102B05D8F978044B0222CF
:1026E000786800F02EF800BF0837BD4680BD00BFF7
:1026F000E31F000280B584B000AF78600B46FB702A
:102700001346BB700023FB60FB78102B14D8FB78BA
:102710001946786800F0AEF8F860FB6823F4FF53C0
:10272000FB60BB785B01FA681343FB60F978FB68D8
:102730000222786800F005F8FB6818461037BD469D
:1027400080BD80B586B000AFF8607B600B46FB7241
:102750001346BB7200237B61FB7A202B12D8BB7A15
:10276000002B06D0FB7A7A681946F86800F010F85A
:102770007861BB7A022B05D0FB7A1946F86800F025
:1027800079F878617B6918461837BD4680BD00002E
:1027900080B58CB000AFF8600B467A60FB72002306
:1027A000FB62FB7A202B5ED8FB681B7A1A46134625
:1027B0005B001344DB0003F50673FA68134404332B
:1027C000BB6207F1180300221A601A7107F11003A7
:1027D00000221A601A71FB7A254AD35C1A464FF020
:1027E000FF339340DB437B627A687B6A13403B6232
:1027F00097F90B305B005BB243F001035BB2DBB2D5
:102800003B763B6A1B0EDBB27B763B6A1B0CDBB272
:10281000BB763B6A1B0ADBB2FB763B6ADBB23B77DB
:1028200007F1100207F118031946B86A0CF0D0FD41
:10283000FB685B681B680C331B68FA685268B96AEE
:10284000104698470346002B0DD07B7C1A06BB7CB4
:102850001B041A43FB7C1B0213433A7D13431A46A5
:102860007B6A1340FB62FB6A18463037BD4680BD69
:10287000886B410080B58AB000AF78600B46FB7072
:1028800000237B62FB78202B46D87B681B7A1A4694
:1028900013465B001344DB0003F506737A681344A8
:1028A00004333B6207F1140300221A601A7107F126
:1028B0000C0300221A601A71FB785B00DBB23B75D7
:1028C00007F10C0207F114031946386A0CF080FD79
:1028D0007B685B681B680C331B687A685268396ACE
:1028E000104698470346002B16D0FB780D4AD35C60
:1028F0001A464FF0FF339340DB43FB617B7B1A06A4
:10290000BB7B1B041A43FB7B1B0213433A7C134320
:102910001A46FB6913407B627B6A18462837BD461E
:1029200080BD00BF886B410080B485B000AFF86007
:10293000B9607A60FA68BB6822FA03F301217A6809
:1029400001FA02F2013A134018461437BD4680BC22
:102950007047000080B586B002AF786039603B6890
:10296000112B01D911233B602B480DF0B3FF00233D
:10297000FB6006E0F96829480DF0ACFFFB68013305
:10298000FB60FA683B689A42F4D325480EF012F8CF
:102990003B6800937B6808221221224800F052F81D
:1029A0003B6800937B6803220F211F4800F04AF820
:1029B0003B6800937B6801220E211C4800F042F81E
:1029C0003B6800937B6801220D21194800F03AF81A
:1029D0003B6800937B6808220521164800F032F816
:1029E0003B6800937B6803220221134800F02AF819
:1029F0003B6800937B6801220121104800F022F817
:102A00003B6800937B68012200210D4800F01AF812
:102A100000BF1037BD4680BDE8344100F8344100A6
:102A2000E4344100003541000C35410018354100C7
:102A300024354100303541003C35410078344100B7
:102A40004835410080B586B000AFF860B9607A6063
:102A50003B60F96810480DF03DFF00237B6110E0FA
:102A60003B681A1D3A601B687A68B9681846FFF718
:102A70005BFF0346194609480DF02CFF7B690133C3
:102A80007B617A693B6A9A42EAD305480DF092FF6E
:102A900000BF1837BD4680BD54354100F8344100B1
:102AA000E434410080B584B000AF78607B681B7D62
:102AB000092B00F0D280092B00F3DE80082B00F0F8
:102AC000C580082B00F3D880072B00F08380072BEC
:102AD00000F3D280062B6DD0062B00F3CD80052BA2
:102AE00000F08480052B00F3C780042B4ED0042B0C
:102AF00000F3C280032B26D0032B00F3BD80022BF2
:102B000012D0022B00F3B880002B00F0C880012BFC
:102B100040F0B280786800F013F9786800F04BF963
:102B20007B6802221A75BDE07B68002283F82220B0
:102B30007B6893F822301946786800F0CDF97B68FD
:102B400004221A75AEE07B6893F822301946786843
:102B500000F0EEF97B6893F822300133DAB27B683B
:102B600083F822207B6893F822300F2B0AD87B68E9
:102B700093F822301946786800F0AEF97B68042299
:102B80001A758FE07B6808221A758BE07B6893F8D2
:102B900020207B6883F821207B6893F822107B68D3
:102BA00093F821301A46786800F0F2F97B68062223
:102BB0001A7577E000F038FA02467B685A627B6843
:102BC0005A6A7B689B691A447B685A627B68072251
:102BD0001A7567E000F028FAF8607B685B6AFA68AB
:102BE0009A425ED37B6805221A755AE07B6893F897
:102BF00021301946786800F0F1F9B8607B68DB692C
:102C0000BA689A4203DD7B6803221A754AE07B6842
:102C100093F82130013BDAB27B6883F821207B688E
:102C200093F82130002B0DD07B6893F822107B683D
:102C300093F821301A46786800F0AAF97B680622DA
:102C40001A752FE07B6803221A752BE0786800F074
:102C5000BFF87B6809221A7524E07B68D3F8383402
:102C6000002B05D07B68D3F83834184605F024F9DA
:102C70007B6800221A7515E0786800F0A9F87B6877
:102C8000D3F83834002B06D07B68D3F838340B499E
:102C9000184605F05DF97B6800221A7502E000BF56
:102CA00000E000BF7B681B7D002B14BF01230023C5
:102CB000DBB218461037BD4680BD00BF5C35410011
:102CC00080B582B000AF7860786800F039F87B6832
:102CD0001B7D19467B6893F822301A467B6893F86F
:102CE000213003480DF0F6FD00BF0837BD4680BD1A
:102CF0006835410080B485B000AFF860B9603B60D2
:102D00001346FB71BB68002B01D0BB6800E0C823F1
:102D1000FA689361FB79002B01D0FA7900E0632215
:102D2000FB6883F820203B68002B01DD3B6800E056
:102D30001423FA68D36100BF1437BD4680BC7047C6
:102D400080B582B000AF78607B6899697B6893F842
:102D500020301A467B68DB690A480DF0BBFD7B68B2
:102D6000184600F068F90346002B03D006480DF022
:102D700021FE02E005480DF0ADFD00BF0837BD465D
:102D800080BD00BFA4354100FC3541000036410044
:102D900080B582B000AF786039607B683A68C3F86C
:102DA00038247B6801221A750CF00DFA0346184688
:102DB0000837BD4680BD80B582B000AF78607B68C3
:102DC0009B681846FFF722FC00BF0837BD4680BD50
:102DD00080B582B000AF7860786800F007F8786856
:102DE00000F032F800BF0837BD4680BD80B586B020
:102DF00000AF78607B689B681846FFF733FC0023C0
:102E0000FB7518E07B689868FB7D7A68134493F83B
:102E10002824FB7D1946FFF76DFC3861FB7D0233EA
:102E2000FB607B681B69F9683A69184605F03FFB4F
:102E3000FB7D0133FB75FB7D0F2BE3D900BF00BF8A
:102E40001837BD4680BD000080B588B000AF7860FF
:102E50001D480DF0AFFD1D480DF03CFD0023FB7734
:102E600008E0FB7F0133194619480DF033FDFB7F65
:102E70000133FB77FB7F0F2BF3D913480DF09AFD3D
:102E800014480DF027FD7B6803F585637B617B6942
:102E9000BB617B6910333B610AE0BB691B78FB7344
:102EA000FB7B19460A480DF015FDBB690133BB6178
:102EB000BA693B699A42F0D103480DF07BFD00BF2F
:102EC0002037BD4680BD00BFFC35410004364100BF
:102ED000143641001C36410080B582B000AF7860E6
:102EE0000B46FB707B68184600F0A5F80346002BE4
:102EF00006D0FB78013319460C480DF0EBFC02E0DC
:102F00002E200DF0F9FC7B6828334FF480620021FD
:102F100018460DF0E9FE7B689B68FA781146184662
:102F2000FFF7D2FB00BF0837BD4680BD2C364100FD
:102F300080B582B000AF78600B46FB707B689B6801
:102F4000FA7811461846FFF7AAFB7B682833184623
:102F500000F016FC0246FB78D1B27A6813440A46A8
:102F600083F828247B68184600F065F80346002B98
:102F700008D0FB787A68134493F82834194603483C
:102F80000DF0A8FC00BF0837BD4680BD34364100B7
:102F900080B582B000AF78600B46FB701346BB7003
:102FA0007B689B68BA78F9781846FFF7A3FB7B68C3
:102FB000184600F040F80346002B04D0BB781946B1
:102FC00005480DF087FC7B68DB6818460AF0EBFDCE
:102FD00000BF0837BD4680BD4036410080B584B093
:102FE00000AF78600B46FB707B68DB6818460AF020
:102FF000DAFD0346FB607B68184600F01CF80346C8
:10300000002B03D0F96807480DF064FCFA787B6860
:103010000A32F96843F82210FB6818461037BD469B
:1030200080BD00BF4836410080B400AF0023184681
:10303000BD4680BC704780B483B000AF78607B68C9
:103040001B7918460C37BD4680BC704780B582B0EE
:1030500000AF786039607B683A681A667B68DB6825
:103060001846FFF79BFA7B689B681846FFF7F4F851
:103070007B681B69012118460AF05BFF7B685B696E
:103080001846FEF7ABFE7B685B6918460AF01AFE2D
:103090007B689B681846FFF707F97B689B681846B2
:1030A0000AF0D5FE00BF0837BD4680BD80B584B0AC
:1030B00000AF78607B689B6818460AF0D6FE03462E
:1030C000FB73FB7B002B17D07B689B6818460AF0CC
:1030D000DBFE0346002B05D07B689B681846FFF794
:1030E000F0F809E07B689B681846FFF7DDF87B681D
:1030F0009B6818460AF0ABFEFB7B18461037BD46AE
:1031000080BD80B582B000AF78607B689B68184650
:10311000FFF7B6F87B68DB681846FFF7A3FA7B6811
:103120001B69002118460AF004FF786800F00AF8CD
:10313000786800F067F87B6800221A6600BF0837DD
:10314000BD4680BD80B588B000AF786029480DF0DD
:10315000C1FB0023FB611AE0F96927480DF0BAFBB7
:103160007B685B69FA69D2B2114618460AF08AFD9B
:1031700003464FF48051184600F084F801467B68FE
:10318000FA69083243F82210FB690133FB61FB69DD
:103190000F2BE1DD19480DF00DFC19480DF09AFBDD
:1031A0007B6820337B617B69BB617B6940333B611A
:1031B00009E0BB691B68FB60F9680F480DF08AFBEA
:1031C000BB690433BB61BA693B699A42F1D17B6840
:1031D000DB69002B04D07B68DB69184604F06CFEC9
:1031E0007B685B691846FEF7F9FD00BF2037BD46D6
:1031F00080BD00BF4C364100543641005C36410072
:103200006036410080B584B000AF78600023FB6079
:1032100010E0FB683C33BB607B689869B9687B68E9
:10322000FA68083253F822301A4605F040F9FB6874
:103230000133FB60FB680F2BEBDD7B6858697B6813
:103240009B693C221946FEF75FFF00BF1037BD4661
:1032500080BD000090B583B000AF78607B681C6EC5
:103260007B681B6918460AF059FE03461A46214638
:1032700003480DF02FFB00BF0C37BD4690BD00BFCB
:103280006836410080B487B000AF786039600023B1
:103290007B6100233B610023FB6015E0FB689B0022
:1032A0007A6813441B68FA6802FB03F37A691344D3
:1032B0007B61FB689B007A6813441B683A6913447E
:1032C0003B61FB680133FB60FA683B689A42E5D3D7
:1032D0003B69002B01D1002303E07A693B69B2FB13
:1032E000F3F318461C37BD4680BC704780B483B0EA
:1032F00000AF78607B6801221A7600BF0C37BD46AC
:1033000080BC704780B483B000AF786000BF0C37DA
:10331000BD4680BC7047000080B485B000AF034656
:10332000FB80FB8807EE903AB8EE677ADFED126A11
:10333000C7EE267A9FED117A67EE877AC7ED037A9A
:10334000D7ED037A9FED0E7A67EE877A9FED0D7ABF
:1033500077EEC77AC7ED027AD7ED027AB6EE007A39
:1033600077EE877AFDEEE77A17EE903A1846143733
:10337000BD4680BC704700BF00FC7F4633335340DE
:103380000AC48C46213E5B4780B582B000AF002363
:103390007B607B681B0A9BB21846FFF7BDFF0346A4
:1033A00018460837BD4680BD80B582B000AF786052
:1033B0007B681433184600F0C1F97B68283318463F
:1033C000FFF794FF00F03AF900BF0837BD4680BD13
:1033D00080B584B000AFF860B9607A603B60FB688C
:1033E0001433B96818460AF0FDFFFB681433796896
:1033F00018460BF004F8FB682833396818460AF0C1
:103400007DFFFB682833B96918460AF084FFFB6822
:10341000FA691A6000BF1037BD4680BD90B595B0FF
:1034200002AF78603960012387F8473007F1200345
:103430001A463621386805F061F803467B6207F1C9
:10344000240318460BF0E5FE0346002B08D097F83E
:103450004730002B14BF0123002387F8473002E0D8
:10346000002387F8473007F11C031A4637213868D4
:1034700005F044F80346BB6207F1280318460BF039
:10348000C8FE0346002B08D097F84730002B14BF26
:103490000123002387F8473002E0002387F84730F4
:1034A00007F118031A463421386805F027F8034657
:1034B000FB6207F12C0318460BF0ABFE0346002B12
:1034C00008D097F84730002B14BF0123002387F85A
:1034D000473002E0002387F8473007F114031A460B
:1034E0003521386805F00AF803463B6307F13003DD
:1034F00018460BF08EFE0346002B08D097F8473095
:10350000002B14BF0123002387F8473002E000237B
:1035100087F8473007F110031A463221386804F063
:10352000EDFF03467B6307F1340318460BF071FE91
:103530000346002B08D097F84730002B14BF012317
:10354000002387F8473002E0002387F8473097F8D8
:103550004730002B0BD0396AF869BC697B693A693E
:1035600001920093234602467868FFF731FF07F186
:103570000C031A463021386804F0C0FF0346BB63D1
:1035800007F1380318460BF044FE0346002B08D021
:1035900097F84730002B14BF0123002387F84730EA
:1035A00002E0002387F84730FB6807EE903AF8EE18
:1035B000E77ADFED206A87EEA67AB0EE470A7868F0
:1035C0000AF0F4FE07F108031A463121386804F0C6
:1035D00095FF0346FB6307F13C0318460BF019FE09
:1035E0000346002B08D097F84730002B14BF012367
:1035F000002387F8473002E0002387F84730BB6894
:1036000007EE903AF8EEE77ADFED0B6A87EEA67ADE
:10361000B0EE470A78680AF0D7FE97F8472007F11E
:103620004003114618460BF0BAFD3B6C18464C3768
:10363000BD4690BD0024744900007A4480B400AFB8
:1036400000BFBD4680BC704790B583B000AF7860C6
:1036500078680AF083FE03460E4A82FB0312521179
:10366000DB17D41A78680AF079FE0346094A82FB10
:1036700003125111DA178A1A642101FB02F29A1A15
:103680007B689B68214604480DF024F900BF0C3785
:10369000BD4690BD1F85EB5198364100F0B58BB00B
:1036A00006AFF860F8680AF059FE03461F4A82FB2D
:1036B00003125211DB17D51AF8680AF04FFE0346C1
:1036C0001A4A82FB03125111DA178C1A642204FB86
:1036D00002F29C1AFB689E68F8680AF04BFEB8601C
:1036E000F8680AF055FE7860FFF74EFE0146104B71
:1036F0001B68104A12680492039302917B6801933D
:10370000BB6800933346224629460B480DF0E2F889
:10371000FB681433184600F01DF8FB682833184680
:10372000FFF7F0FD00BF1437BD46F0BD1F85EB511C
:10373000580240205C024020B036410080B483B083
:1037400000AF78607B6801221A7300BF0C37BD465A
:1037500080BC704780B582B000AF7860054B1B68B5
:10376000054A1268194605480DF0B4F800BF08373D
:10377000BD4680BD60024020640240200037410009
:1037800080B485B000AF78604FF48073FB60FD2398
:10379000FB6019E0FB689B007A6813441A68FB68B9
:1037A00001339B0079680B441B681A44FB680233A1
:1037B0009B0079680B441B681344BB60BB68142BE7
:1037C00006DCFB68013BFB60FB68002BE2DC00E0F1
:1037D00000BFFB68023318461437BD4680BC7047F3
:1037E00080B400AF024B1846BD4680BC704700BF96
:1037F000BC4E410080B483B000AF0346FB71FB793F
:10380000502B04D8FB79054A52F8233000E0044BD2
:1038100018460C37BD4680BC704700BF2853410096
:103820002453410080B582B000AF786039603968B8
:10383000786800F098FB034618460837BD4680BDFF
:1038400080B582B000AF786039607B681B680C334C
:103850001B6839687868984700BF0837BD4680BD47
:1038600080B582B000AF786039607B681B68103328
:103870001B6839687868984700BF0837BD4680BD27
:1038800080B582B000AF786039607B681B68143304
:103890001B6839687868984700BF0837BD4680BD07
:1038A00080B584B000AF78603960022138680BF0D1
:1038B00035FAF8607B681B6818331B68FA6839684A
:1038C0007868984700BF1037BD4680BD80B584B08A
:1038D00000AF78603960022138680BF01FFAF86099
:1038E0007B681B681C331B68FA68396878689847DE
:1038F00000BF1037BD4680BD80B584B000AF786092
:103900003960022138680BF009FAF8607B681B689F
:1039100020331B68FA6839687868984700BF103709
:10392000BD4680BD80B584B000AF786039600221AB
:1039300038680BF0F3F9F8607B681B6824331B6868
:10394000FA6839687868984700BF1037BD4680BD6F
:1039500080B584B000AF78603960022138680BF020
:10396000DDF9F8607B681B6828331B68FA683968E2
:103970007868984700BF1037BD4680BD80B582B0DB
:1039800000AF786039603968786800F02EFB034634
:1039900018460837BD4680BD80B582B000AF78605C
:1039A00039607B681B680C331B68396878689847F6
:1039B00000BF0837BD4680BD80B582B000AF7860DB
:1039C00039607B681B6810331B68396878689847D2
:1039D00000BF0837BD4680BD80B582B000AF7860BB
:1039E00039607B681B6814331B68396878689847AE
:1039F00000BF0837BD4680BD80B582B000AF78609B
:103A000039607B681B6818331B6839687868984789
:103A100000BF0837BD4680BD80B582B000AF78607A
:103A200039607B681B681C331B6839687868984765
:103A300000BF0837BD4680BD90B585B000AF786047
:103A40003960012138680BF069F9F86002213868A3
:103A50000BF064F9B8607B681B6820331C68BB6896
:103A6000FA6839687868A04700BF1437BD4690BD32
:103A700080B582B000AF786039603968786800F04E
:103A8000F6FA034618460837BD4680BD80B584B0B7
:103A900000AF78603960032138680BF03FF9F860B7
:103AA0007B681B680C331B68FA683968786898472C
:103AB00000BF1037BD4680BD80B584B000AF7860D0
:103AC0003960032138680BF029F9F8607B681B68BE
:103AD00010331B68FA6839687868984700BF103758
:103AE000BD4680BD80B584B000AF786039600321E9
:103AF00038680BF013F9F8607B681B6814331B6897
:103B0000FA6839687868984700BF1037BD4680BDAD
:103B100080B584B000AF78603960032138680BF05D
:103B2000FDF8F8607B681B6818331B68FA68396811
:103B30007868984700BF1037BD4680BD80B582B019
:103B400000AF786039607B681B681C331B6839687C
:103B50007868984700BF0837BD4680BD80B582B001
:103B600000AF786039607B681B6820331B68396858
:103B70007868984700BF0837BD4680BD80B582B0E1
:103B800000AF786039607B681B6824331B68396834
:103B90007868984700BF0837BD4680BD80B582B0C1
:103BA00000AF786039607B681B6828331B68396810
:103BB0007868984700BF0837BD4680BD80B582B0A1
:103BC00000AF786039607B681B682C331B683968EC
:103BD0007868984700BF0837BD4680BD80B582B081
:103BE00000AF786039607B681B6830331B683968C8
:103BF0007868984700BF0837BD4680BD80B582B061
:103C000000AF786039603968786800F072FA03466E
:103C100018460837BD4680BD90B585B000AF7860C6
:103C20003960012138680BF079F8F86002213868B2
:103C30000BF074F8B8607B681B680C331C68BB68B9
:103C4000FA6839687868A04700BF1437BD4690BD50
:103C500080B584B000AF78603960012138680BF01E
:103C60005DF8F8607B681B6810331B68FA68396878
:103C70007868984700BF1037BD4680BD80B582B0D8
:103C800000AF786039607B681B6814331B68396843
:103C90007868984700BF0837BD4680BD90B589B0A9
:103CA00002AF78603960022138680BF037F878612C
:103CB000032138680BF032F83861042138680BF0C2
:103CC0002DF8F8607B681B6818331C68FB6800934C
:103CD0003B697A6939687868A04700BF1C37BD46E0
:103CE00090BD90B585B000AF78603960022138682A
:103CF0000BF014F8F860032138680BF00FF8B86087
:103D00007B681B681C331C68BB68FA683968786874
:103D1000A04700BF1437BD4690BD80B582B000AF4C
:103D2000786039607B681B6820331B683968786865
:103D3000984700BF0837BD4680BD80B582B000AF50
:103D4000786039607B681B6824331B683968786841
:103D5000984700BF0837BD4680BD80B582B000AF30
:103D6000786039607B681B6828331B68396878681D
:103D7000984700BF0837BD4680BD80B582B000AF10
:103D8000786039607B681B682C331B6839687868F9
:103D9000984700BF0837BD4680BD80B584B000AFEE
:103DA00078603960012138680AF0B8FFF8607B68F4
:103DB0001B6830331B68FA6839687868984700BF19
:103DC0001037BD4680BD80B582B000AF78603960E5
:103DD0007B681B6834331B6839687868984700BF74
:103DE0000837BD4680BD80B582B000AF78603960CD
:103DF0007B681B6838331B6839687868984700BF50
:103E00000837BD4680BD90B585B000AF7860396099
:103E1000022138680AF082FFF860032138680AF04E
:103E20007DFFB8607B681B683C331C68BB68FA6820
:103E300039687868A04700BF1437BD4690BD80B58B
:103E400084B000AF78603960022138680AF066FFFC
:103E5000F8607B681B6840331B68FA6839687868CB
:103E6000984700BF1037BD4680BD80B582B000AF17
:103E7000786039607B681B6844331B6839687868F0
:103E8000984700BF0837BD4680BD80B582B000AFFF
:103E9000786039603968786800F06DF90346184633
:103EA0000837BD4680BD80B582B000AF786039600C
:103EB0007B681B680C331B6839687868984700BFBB
:103EC0000837BD4680BD80B582B000AF78603960EC
:103ED0007B681B6810331B6839687868984700BF97
:103EE0000837BD4680BD80B582B000AF78603960CC
:103EF0007B681B6814331B6839687868984700BF73
:103F00000837BD4680BD80B582B000AF78603960AB
:103F10007B681B6818331B6839687868984700BF4E
:103F20000837BD4680BD80B582B000AF786039608B
:103F30007B681B681C331B6839687868984700BF2A
:103F40000837BD4680BD80B582B000AF786039606B
:103F50007B681B6820331B6839687868984700BF06
:103F60000837BD4680BD80B588B000AF7860396045
:103F700038680AF08DFE0346DAB207F10C031146E9
:103F8000184600F03BF9FB68002B06D13B6903F0B3
:103F90000103002B01D1012300E0002383F0010382
:103FA000FB77FB7F002B1BD07A6807F1140307F126
:103FB0000C0103C983E80300BB6903F00103002B74
:103FC00001D17B6906E0BB695B1013441B6879690A
:103FD0000B441B68B96949100A4439681046984770
:103FE000FB7F18462037BD4680BD80B588B000AF46
:103FF0007860396038680AF04BFE0346DAB207F1A0
:104000000C031146184600F02BF9FB68002B06D173
:104010003B6903F00103002B01D1012300E00023E1
:1040200083F00103FB77FB7F002B1BD07A6807F13D
:10403000140307F10C0103C983E80300BB6903F013
:104040000103002B01D17B6906E0BB695B101344BF
:104050001B6879690B441B68B96949100A443968BF
:1040600010469847FB7F18462037BD4680BD80B577
:1040700088B000AF7860396038680AF009FE0346FE
:10408000DAB207F10C031146184600F01BF9FB6881
:10409000002B06D13B6903F00103002B01D1012362
:1040A00000E0002383F00103FB77FB7F002B1BD094
:1040B0007A6807F1140307F10C0103C983E80300D0
:1040C000BB6903F00103002B01D17B6906E0BB69EA
:1040D0005B1013441B6879690B441B68B96949106C
:1040E0000A44396810469847FB7F18462037BD467A
:1040F00080BD80B588B000AF7860396038680AF05C
:10410000C7FD0346DAB207F10C031146184600F06A
:104110000BF9FB68002B06D13B6903F00103002B70
:1041200001D1012300E0002383F00103FB77FB7F33
:10413000002B1BD07A6807F1140307F10C0103C9A7
:1041400083E80300BB6903F00103002B01D17B6905
:1041500006E0BB695B1013441B6879690B441B685C
:10416000B96949100A44396810469847FB7F1846D8
:104170002037BD4680BD80B588B000AF786039601B
:1041800038680AF085FD0346DAB207F10C031146E0
:10419000184600F0FBF8FB68002B06D13B6903F0E2
:1041A0000103002B01D1012300E0002383F0010370
:1041B000FB77FB7F002B1BD07A6807F1140307F114
:1041C0000C0103C983E80300BB6903F00103002B62
:1041D00001D17B6906E0BB695B1013441B687969F8
:1041E0000B441B68B96949100A443968104698475E
:1041F000FB7F18462037BD4680BD000080B487B0E5
:1042000000AF78600B46FB70134B3B61124B7B6138
:10421000124BFB6010E07B69BB60BB681B7AFA78CD
:104220009A4206D17B68BA6892E8030083E80300EB
:104230000CE07B690C337B617A69FB689A42EAD1B6
:104240007B6800221A607B6800225A6078681C37FD
:10425000BD4680BC704700BF6C544100CC54410047
:1042600080B487B000AF78600B46FB70134B3B61A6
:10427000124B7B61124BFB6010E07B69BB60BB683B
:104280001B7AFA789A4206D17B68BA6892E80300F2
:1042900083E803000CE07B690C337B617A69FB687F
:1042A0009A42EAD17B6800221A607B6800225A6039
:1042B00078681C37BD4680BC704700BFCC544100B5
:1042C0001455410080B487B000AF78600B46FB7096
:1042D000134B3B61124B7B61124BFB6010E07B691F
:1042E000BB60BB681B7AFA789A4206D17B68BA68D1
:1042F00092E8030083E803000CE07B690C337B61E8
:104300007A69FB689A42EAD17B6800221A607B686E
:1043100000225A6078681C37BD4680BC704700BFD9
:10432000145541008C55410080B487B000AF7860CF
:104330000B46FB70134B3B61124B7B61124BFB60D6
:1043400010E07B69BB60BB681B7AFA789A4206D1A1
:104350007B68BA6892E8030083E803000CE07B699D
:104360000C337B617A69FB689A42EAD17B68002250
:104370001A607B6800225A6078681C37BD4680BC92
:10438000704700BF8C5541004056410080B487B053
:1043900000AF78600B46FB70134B3B61124B7B61A7
:1043A000124BFB6010E07B69BB60BB681B7AFA783C
:1043B0009A4206D17B68BA6892E8030083E803005A
:1043C0000CE07B690C337B617A69FB689A42EAD125
:1043D0007B6800221A607B6800225A6078681C376C
:1043E000BD4680BC704700BF405641008856410022
:1043F00080B582B000AF786000F08CF800F014F85F
:1044000000F02EF8054B064A1A60064B4FF457325F
:104410001A6100BF0837BD4680BD00BF08004020BC
:1044200080D1F00800060E4080B400AF0A4B0B4A62
:104430009A6200E000BF084B9B6E03F00203C3F3D7
:10444000400383F00103DBB2002BF3D100BF00BFB8
:10445000BD4680BC704700BF00060E40013F1820DB
:1044600080B400AF284B294A1A6000E000BF264BF9
:104470009B6803F00103C3F3000383F00103DBB285
:10448000002BF3D1224B1B6B214A23F070031363E3
:1044900000E000BF1E4B9B6E03F00803C3F3C00394
:1044A00083F00103DBB2002BF3D1194B1B6B23F418
:1044B0004073174A43F48073136300E000BF144B4A
:1044C0009B6E03F00803C3F3C00383F00103DBB268
:1044D000002BF3D10E4B1B6B23F003030C4A43F06C
:1044E0000203136300E000BF094B9B6E03F0080357
:1044F000C3F3C00383F00103DBB2002BF3D100BF91
:1045000000BFBD4680BC7047000C0E400006000492
:1045100000060E4080B400AF054B4FF400425A60D5
:10452000044B4FF400425A6000BFBD4680BC704748
:1045300050180E4000190E4080B400AF024B1846D0
:10454000BD4680BC704700BF80D1F00880B483B006
:1045500000AF78607B681F2B05D801227B689A40EA
:10456000074B1A6106E07B68203B01229A40044B0E
:10457000C3F8002100BF0C37BD4680BC704700BFA8
:1045800000060E4080B483B000AF7860044A7B68B8
:104590001A607B6818460C37BD4680BC704700BF68
:1045A000F070410080B584B000AFF8607A601A46C0
:1045B0000B46FB721346BB72FB681846FFF7E2FF1F
:1045C0001E4AFB681A60FB687A685A603B7E1C4A88
:1045D00052F82320FB689A603B7F01229A40FB68D7
:1045E000DA60FB68FA7A1A74FB68BA7A5A74FB6864
:1045F0003A7E9A74FB683A7FDA74FB6897F8202059
:104600001A75FB6800225A75FB6897F824209A7582
:10461000FB6897F82820DA75FB6897F82C201A7643
:10462000FB689B68002B03D12121064805F091FC13
:10463000FB6818461037BD4680BD00BF706E410054
:10464000885641009C56410080B582B000AF78602A
:104650000B46FB701346BB707B689B68002B36D003
:104660007B681B7CFA789A4203D00AF0B9FD0346B6
:1046700031E07B68DB68002B03D10AF0B1FD034613
:1046800029E07B685B7CBA789A4220D378680AF08C
:104690001CF90346002B10D07B681B7E002B06D034
:1046A0007B681B6814331B687868984705E07B6853
:1046B0001B6818331B68786898477B68987C7B6810
:1046C000D97C7B681A7D7B689B7D00F0B9F80AF085
:1046D0007AFD034600BF18460837BD4680BD80B44A
:1046E00083B000AF78607B689B68002B0BD07B6841
:1046F0009B68DA6B7B68DB681340002B14BF0123D7
:104700000023DBB200E0002318460C37BD4680BC16
:10471000704780B483B000AF78607B689B68002BE3
:1047200007D07B689B687A68D2681A63BFF34F8FA3
:1047300000BF00BF0C37BD4680BC704780B483B05B
:1047400000AF78607B689B68002B07D07B689B6814
:104750007A68D2685A63BFF34F8F00BF00BF0C372F
:10476000BD4680BC704780B483B000AF78607B6882
:104770009B68002B1CD07B689B68DA6B7B68DB68CE
:104780001340002B0CBF01230023DBB2002B07D00A
:104790007B689B687A68D2681A63BFF34F8F07E023
:1047A0007B689B687A68D2685A63BFF34F8F00BFFB
:1047B00000BF0C37BD4680BC704780B483B000AFEB
:1047C00078607B689B68002B0FD07B689B687A6859
:1047D000D2681A63BFF34F8F00BF7B689B687A680B
:1047E000D2685A63BFF34F8F00BF00BF0C37BD467E
:1047F00080BC704780B483B000AF786039607B685C
:104800009B68002B16D012E07B689B687A68D268A0
:104810001A63BFF34F8F00BF7B689B687A68D268CA
:104820005A63BFF34F8F00BF3B68013B3B603B685F
:10483000002BE9D100BF0C37BD4680BC704700009B
:1048400090B486B000AF0446084611461A46234687
:10485000FB710346BB710B467B7113463B71FB79C1
:104860004D4A52F82330FB60BB79012202FA03F370
:10487000BB607B79002B03D1FB68BA681A602EE01D
:10488000FB681B6F7B61FB685B6F3B617B79022B75
:1048900002D07B79042B04D17A69BB6813437B6116
:1048A00004E0BB68DB437A6913407B617B79032BAF
:1048B00002D07B79042B04D13A69BB6813433B6176
:1048C00004E0BB68DB433A6913403B61FB687A69EB
:1048D0001A67FB683A695A67FB68BA685A607B795D
:1048E000002B11D13B79032B02DC002B04DA0BE007
:1048F000043B022B08D803E0FB68BA685A6103E066
:10490000FB68BA681A6100BF3B79062B06D0062BFC
:1049100014DC012B02D0022B08D00FE0FB68BA6830
:10492000C3F89020FB68BA685A660FE0FB68BA6863
:104930001A66FB68BA68C3F8942007E0FB68BA6897
:104940001A66FB68BA68C3F8902000BF3B79053B44
:10495000012B03D8FB68BA681A6503E0FB68BA68E4
:104960005A6500BF3B79032B09D1FB68D3F80021BE
:10497000BB68DB431A40FB68C3F8002107E0FB6813
:10498000D3F80021BB681A43FB68C3F8002100BFBD
:104990001837BD4690BC7047885641002DE9F0415C
:1049A00084B002AF78607B681B7D002B10D07B68E1
:1049B0009B7C19467B68DB7C1A467B681B7D18460E
:1049C0007B685B680093034613480BF083FF1EE08F
:1049D0007B689B7C1D467B68DB7C1E467B689B7DE1
:1049E00098467B685C687B681B6810331B68786836
:1049F00098470346002B01D0012300E000230193D8
:104A0000009443463246294604480BF063FF00BF3A
:104A10000837BD46BDE8F0810457410020574100EA
:104A200080B500AF0A20FFF791FD0B20FFF78EFD48
:104A30000C20FFF78BFD1020FFF788FD1120FFF7FA
:104A400085FD00BF80BD000080B483B000AF034689
:104A5000FB7197F90730002B0BDBFB7903F01F028A
:104A6000064997F907305B09012000FA02F241F884
:104A7000232000BF0C37BD4680BC704700E100E03A
:104A800080B483B000AF0346FB7197F90730002B69
:104A900012DBFB7903F01F020A4997F907305B0923
:104AA000012000FA02F2203341F82320BFF34F8F98
:104AB00000BFBFF36F8F00BF00BF0C37BD4680BC87
:104AC000704700BF00E100E080B483B000AF034650
:104AD000FB7197F90730002B0CDBFB7903F01F0209
:104AE000074997F907305B09012000FA02F26033A9
:104AF00041F8232000BF0C37BD4680BC704700BF83
:104B000000E100E080B483B000AF03463960FB7180
:104B100097F90730002B0ADB3B68DAB20C4997F9AA
:104B200007305201D2B20B4483F800230AE03B68FD
:104B3000DAB20849FB7903F00F03043B5201D2B209
:104B40000B441A7600BF0C37BD4680BC704700BFCF
:104B500000E100E000ED00E080B584B000AFF86057
:104B6000B9607A60FB68D3F858317A68B96818463A
:104B700006F094FA0346012B0CBF01230023DBB29D
:104B800018461037BD4680BD80B584B000AFF860D0
:104B9000B9607A60FB68D3F8580107F10801002377
:104BA0007A6805F067FF0346012B0CBF0123002341
:104BB000DBB218461037BD4680BD80B582B000AF6D
:104BC000786039607B68D3F858310222396818461A
:104BD00006F0A6F80346012B0CBF01230023DBB22D
:104BE00018460837BD4680BD80B582B000AF7860FA
:104BF00039607B68D3F8580139460023022205F05A
:104C000035FE0346012B0CBF01230023DBB21846FF
:104C10000837BD4680BD000080B582B000AF786027
:104C2000054A7B681A607B68184600F069F87B6863
:104C300018460837BD4680BD4058410080B582B057
:104C400000AF78607868FFF7E7FF4FF4AE717868DF
:104C50000AF0DAFB7B6818460837BD4680BD0000C5
:104C600080B584B002AF78607B68184600F038F8F1
:104C7000194A7B681A607B68043354220021184665
:104C80000CF032F87B6858334FF4807200211846DC
:104C90000CF02AF87B680022C3F858217B6803F1E6
:104CA00058027B680433002100910421402005F064
:104CB00069FD02467B68C3F858217B68D3F85831F8
:104CC000002B03D11521054805F043F97B681846F0
:104CD0000837BD4680BD00BF405841003C574100E9
:104CE00080B483B000AF7860044A7B681A607B6848
:104CF00018460C37BD4680BC704700BF6058410065
:104D000080B483B000AF7860044A7B681A607B6827
:104D100018460C37BD4680BC704700BF6058410044
:104D200080B582B000AF78607868FFF7E9FF0421B2
:104D300078680AF069FB7B6818460837BD4680BD75
:104D400080B483B000AF0346FB71FB79002B01D127
:104D5000034B00E0002318460C37BD4680BC70476B
:104D60000C00402080B582B000AF0A4B1B687B600E
:104D70007B68002B03D0786800F022F905E015204D
:104D8000FFF77EFE1520FFF79FFE00BF0837BD46E8
:104D900080BD00BF6C02402080B483B000AF78605B
:104DA000044A7B681A607B6818460C37BD4680BC95
:104DB000704700BF9471410080B584B000AFF860C7
:104DC0000B467A60FB72FB681846FFF7E5FF174A4F
:104DD000FB681A60FB68FA7A1A71FB687A689A6055
:104DE000FB7A1846FFF7ACFF0246FB68DA60FB6807
:104DF00000221A74FB6800225A61FB6818331846B7
:104E0000FFF72EFFFB68DB68002B03D13721084832
:104E100005F09FF8FB681B79002B02D1054AFB685F
:104E20001360FB6818461037BD4680BDA46E410074
:104E3000A85741006C02402080B586B002AF786070
:104E40007B68DB68002B0FD07B68DB689B68FB60AE
:104E50007B681B7919460223019300230093044BBE
:104E6000FA6804480BF036FD00BF1037BD4680BD20
:104E700080841E000C58410080B582B000AF78607D
:104E80001520FFF763FB786800F072F8786800F08F
:104E900013F87B681B79002B02D1064A7B681360EC
:104EA0007B6800225A61786800F02CF800BF083750
:104EB000BD4680BD6C02402080B584B000AF7860F4
:104EC0007B68DB68002B16D07B68DB681B68FB60A7
:104ED000FFF732FB03460A4AA2FB0323DB0C1B024B
:104EE00003F47F43BB60BB6843F00202FB681A63B4
:104EF000FB6811225A6000BF1037BD4680BD00BF5D
:104F000083DE1B4380B586B000AF78607B68DB68CA
:104F1000002B29D07B68DB681B687B617B68DB68C2
:104F20001B79FB747B68DB689B68FB607B691B6893
:104F300043F001027B691A6097F913301846FFF7B6
:104F40009FFD97F91330F9681846FFF7DBFD7B6981
:104F500003225A6197F913301846FFF7B5FD97F908
:104F600013301846FFF770FD00BF1837BD4680BDEF
:104F700080B584B000AF78607B68DB68002B1AD006
:104F80007B68DB681B68FB607B68DB681B79FB72F6
:104F900097F90B301846FFF773FDFB6840F20F726C
:104FA0009A6197F90B301846FFF78EFD97F90B3091
:104FB0001846FFF749FD00BF1037BD4680BD000011
:104FC00080B586B000AF78607B68DB68002B29D0A5
:104FD0000023FB607B68DB681B687B617B691B6966
:104FE0003B613B6903F00203002B02D0786800F0BC
:104FF00061F83B6903F00103002B02D0786800F0F0
:1050000017F807F10C031946786800F099F8FB6867
:10501000002B07D0054B4FF080521A60BFF34F8F23
:10502000BFF36F8F00BF1837BD4680BD04ED00E0B1
:1050300080B586B000AF78607B68DB68002B35D028
:105040007B68DB681B687B617B699B68FB747B68A2
:105050005B69002B09D07B685B6918460AF090F900
:105060000346002B01D0012300E00023002B1AD0BF
:105070007B685B6918460AF048F9F860FB68002B0A
:1050800014D07B685B6918460AF097F90346FB72F7
:10509000FB7AFA681344FA7C1A707B685B691846DD
:1050A0000AF04DF902E07B6901229A6100BF1837CE
:1050B000BD4680BD80B586B000AF78607B68DB6898
:1050C000002B39D07B68DB681B687B617B685B6980
:1050D000002B09D07B685B6918460AF03FF903464C
:1050E000002B01D0012300E00023002B21D07B689E
:1050F0005B6918460AF0FEF838613B69002B14D052
:105100007B685B6918460AF04DF90346FB73FB7B2D
:105110003A6913441B78BB73BA7B7B69DA607B689E
:105120005B6918460AF0FCF806E07B6902229A6186
:1051300002E07B6902229A6100BF1837BD4680BD3C
:1051400080B582B000AF786039607B685B69002B06
:105150000CD07B685B6918460AF012F9034683F0AD
:105160000103DBB2002B01D0012300E00023002B60
:1051700007D03968786800F008F83968786800F076
:1051800030F800BF0837BD4680BD80B584B000AFA1
:10519000786039607B685B69002B1BD07B685B693A
:1051A000FB607B6800225A61F8680AF098F80346B1
:1051B0001A681432126818469047FB681B68083357
:1051C0001B68F868984703461A68143212683968F1
:1051D000184690477868FFF7CBFE00BF1037BD46F2
:1051E00080BD80B584B000AF78603960786809F020
:1051F0007CFB0346002B1DD00023FB607B6818332B
:1052000007F10C013A681846FFF7A6FC0346002B8D
:1052100010D0FA687B685A617B685B6918460AF0AF
:105220005EF803461A681832126818469047786884
:10523000FFF768FE00BF1037BD4680BD80B584B063
:1052400000AF7860786809F050FB0346002B1DD052
:105250000023FB607B68183307F10C0211461846E7
:10526000FFF7ABFC0346002B10D0FA687B685A614D
:105270007B685B6918460AF032F803461A681832F0
:105280001268184690477868FFF73CFE00BF103759
:10529000BD4680BD80B584B000AF78603960002322
:1052A000FB733B68002B19D07B68183339681846AC
:1052B000FFF79AFC0346002B10D07868FFF7BEFF7B
:1052C0003B681B6808331B683868984703461A68B0
:1052D00008321268184690470123FB73FB7B18467F
:1052E0001037BD4680BD000080B483B000AF0346D8
:1052F000FB7197F90730002B0BDBFB7903F01F02E2
:10530000064997F907305B09012000FA02F241F8DB
:10531000232000BF0C37BD4680BC704700E100E091
:1053200080B483B000AF0346FB7197F90730002BC0
:1053300012DBFB7903F01F020A4997F907305B097A
:10534000012000FA02F2203341F82320BFF34F8FEF
:1053500000BFBFF36F8F00BF00BF0C37BD4680BCDE
:10536000704700BF00E100E080B483B000AF0346A7
:10537000FB7197F90730002B0CDBFB7903F01F0260
:10538000074997F907305B09012000FA02F2603300
:1053900041F8232000BF0C37BD4680BC704700BFDA
:1053A00000E100E080B483B000AF03463960FB71D8
:1053B00097F90730002B0ADB3B68DAB20C4997F902
:1053C00007305201D2B20B4483F800230AE03B6855
:1053D000DAB20849FB7903F00F03043B5201D2B261
:1053E0000B441A7600BF0C37BD4680BC704700BF27
:1053F00000E100E000ED00E080B584B000AFF860AF
:10540000B9607A60FB68D3F8D8307A68B968184612
:1054100005F044FE0346012B0CBF01230023DBB241
:1054200018461037BD4680BD80B584B000AFF86027
:105430000B467A60FB72FB68D3F8D80007F10B01CA
:1054400000237A6805F016FB0346012B0CBF0123ED
:105450000023DBB218461037BD4680BD80B582B050
:1054600000AF786039607B68D3F8D83002223968A1
:10547000184605F055FC0346012B0CBF0123002301
:10548000DBB218460837BD4680BD80B582B000AF9C
:1054900078600B46FB707B68D3F8D800F91C0023BA
:1054A000022205F0E3F90346012B0CBF0123002380
:1054B000DBB218460837BD4680BD80B584B000AF6A
:1054C000F860B9607A60FB6803F580539B6D7A6879
:1054D000B968184605F0E2FD0346012B0CBF012315
:1054E0000023DBB218461037BD4680BD80B584B0BE
:1054F00000AFF8600B467A60FB72FB6803F58053DF
:10550000986D07F10B0100237A6805F0B3FA0346A2
:10551000012B0CBF01230023DBB218461037BD4618
:1055200080BD80B582B000AF786039607B6803F5DC
:1055300080539B6D02223968184605F0F1FB034643
:10554000012B0CBF01230023DBB218460837BD46F0
:1055500080BD80B582B000AF78600B46FB707B6881
:1055600003F58053986DF91C0023022205F07EF9A3
:105570000346012B0CBF01230023DBB2184608377A
:10558000BD4680BD80B582B000AF7860054A7B68BB
:105590001A607B68184600F0CDF87B68184608371B
:1055A000BD4680BD5059410080B582B000AF7860E3
:1055B0007868FFF7E7FF41F25C01786809F024FFA3
:1055C0007B6818460837BD4680BD000080B584B0B2
:1055D00002AF78607B68184600F09CF81B4A7B6835
:1055E0001A607B6804335422002118460BF07CFBC0
:1055F0007B6858334FF48052002118460BF074FB3F
:105600007B6803F580531A46002393657B6803F19A
:1056100058027B6804330021009101214FF480502F
:1056200005F0B0F802467B6803F580539A657B6805
:1056300003F580539B6D002B03D11521044804F022
:1056400088FC7B6818460837BD4680BD505941002C
:105650007858410080B582B000AF7860054A7B6819
:105660001A607B68184600F065F87B6818460837B2
:10567000BD4680BD7059410080B582B000AF7860F2
:105680007868FFF7E7FFDC21786809F0BDFE7B68EA
:1056900018460837BD4680BD80B584B002AF78603B
:1056A0007B68184600F036F8184A7B681A607B68F9
:1056B00004335422002118460BF016FB7B68583344
:1056C0008022002118460BF00FFB7B680022C3F8F4
:1056D000D8207B6803F158027B68043300210091D5
:1056E0000121802005F04EF802467B68C3F8D820DF
:1056F0007B68D3F8D830002B03D11521044804F07F
:1057000028FC7B6818460837BD4680BD70594100AB
:105710007858410080B483B000AF7860044A7B6859
:105720001A607B6818460C37BD4680BC704700BFC6
:105730009059410080B483B000AF7860044A7B6820
:105740001A607B6818460C37BD4680BC704700BFA6
:105750009059410080B582B000AF78607868FFF75B
:10576000E9FF0421786809F04FFE7B681846083786
:10577000BD4680BD80B483B000AF0346FB71FB79AA
:10578000012B01D1034B00E0002318460C37BD4626
:1057900080BC70471800402080B500AF074B1B68E5
:1057A000002B05D0054B1B68184600F0B3F802E04B
:1057B0000E20FFF7B5FD00BF80BD00BF7002402086
:1057C00080B483B000AF7860044A7B681A607B685D
:1057D00018460C37BD4680BC704700BFDC714100E5
:1057E00080B582B000AF78600B46FB707B681846CE
:1057F000FFF7E6FF114A7B681A607B68FA781A7136
:10580000FB781846FFF7B6FF02467B689A607B6814
:105810000C331846FFF740FF7B68E8331846FFF764
:10582000D5FE7B689B68002B03D14721044804F018
:1058300090FB7B6818460837BD4680BDBC6E4100B2
:10584000E458410080B582B000AF7860786800F01D
:1058500007F8786800F032F800BF0837BD4680BD11
:1058600080B584B000AF78607B689B68002B1FD048
:105870007B689B681B68FB607B689B68DB68BB6020
:10588000B868FEF763FEFB684FF486721A60FB6827
:1058900050221A60FB684FF40C625A60FB68512278
:1058A0001A627B681B79012B02D1034A7B68136063
:1058B00000BF1037BD4680BD7002402080B584B067
:1058C00000AF78607B689B68002B1FD07B689B686B
:1058D0001B79FB737B689B689B68BB6097F90F30F3
:1058E0001846FFF71DFD97F90F30B9681846FFF706
:1058F00059FD97F90F301846FFF736FD97F90F302D
:105900001846FFF7F1FC786800F0C0F800BF1037C8
:10591000BD4680BD80B586B000AF78607B689B686F
:10592000002B39D07B689B681B687B611C4B1B6814
:1059300001331B4A13607B695B693B613B6903F080
:10594000E003FB60FB68002B02D07B69E022DA6099
:105950000023BB603B6903F00103002B05D007F176
:1059600008031946786800F01FF83A6940F20223EC
:105970001340002B05D007F108031946786800F0A2
:105980004BF8BB68002B07D0064B4FF080521A60D3
:10599000BFF34F8FBFF36F8F00BF1837BD4680BD79
:1059A0007402402004ED00E080B584B000AF786060
:1059B00039607B689B68002B25D07B689B681B68DF
:1059C000FB6017E0FB689B69FB727B680C33F97A1C
:1059D0003A681846FFF728FD0346002B05D00C4B0C
:1059E0001B6801330A4A136004E00A4B1B68013349
:1059F000084A1360FB685B6903F00103C3F300030B
:105A0000DBB2002BDED100BF1037BD4680BD00BF2A
:105A1000800240208402402080B584B000AF7860CE
:105A200039607B689B68002B2AD07B689B681B6869
:105A3000FB6019E07B68E83307F10B013A68184610
:105A4000FFF73BFD0346002B09D0FB7A1A46FB68A3
:105A5000DA610D4B1B6801330B4A136004E0786870
:105A600000F03DF800BF0BE0FB685A6940F20223EA
:105A70001340002B14BF01230023DBB2002BD9D12C
:105A800000BF1037BD4680BD7802402080B485B08D
:105A900000AF78607B689B68002B06D07B689B68B2
:105AA0001B68FB60FB6801229A6000BF1437BD468B
:105AB00080BC704780B485B000AF78607B689B681D
:105AC000002B07D07B689B681B68FB60FB6840F27B
:105AD00002229A6000BF1437BD4680BC704780B474
