:020000040040BA
:10000000A8A3442081624000756440000164400060
:10001000C1644000156440000D6540000000000010
:1000200000000000000000000000000045664000E5
:100030004D6540000000000091684000F5684000F8
:10004000296440002964400029644000296440007C
:10005000296440002964400029644000296440006C
:100060002964400000000000296440002964400029
:100070002964400029644000655E40002964400016
:10008000296440002964400029644000296440003C
:100090002964400031544000296440002964400034
:1000A000296440002964400029644000296440001C
:1000B000296440002964400029644000296440000C
:1000C00029644000296440002964400029644000FC
:1000D00029644000296440002964400029644000EC
:1000E00029644000296440002964400029644000DC
:1000F00029644000296440002964400029644000CC
:1001000029644000296440002964400029644000BB
:100110002964400029644000000000000000000045
:10012000296440002964400029644000296440009B
:100130002964400029644000000000002964400058
:10014000296440002964400029644000296440007B
:10015000296440002964400029644000296440006B
:1001600029644000296440000348044B834202D0C4
:10017000034B03B118477047C47E4100C47E410061
:10018000000000000548064B1B1AD90F01EBA30124
:10019000491002D0034B03B118477047C47E410099
:1001A000C47E41000000000010B5064C237843B91E
:1001B000FFF7DAFF044B13B10448AFF300800123CB
:1001C000237010BD1002402000000000C47E4100DA
:1001D00008B5054B1BB105490548AFF30080BDE8E4
:1001E0000840FFF7CFBF00BF00000000140240200E
:1001F000C47E410080B582B000AF78607B68143364
:10020000184601F025FB7B6803F6545318460EF0A0
:10021000E1F87A68044B1344184606F0E5FF00BF86
:100220000837BD4680BD00BFE853020080B582B0EC
:1002300000AF78600EF0D4FE00BF0837BD4680BD29
:1002400080B582B000AF78607B68DB69184603F048
:10025000ABF87B685B6A184600F0BAF800BF083755
:10026000BD4680BD80B584B000AF78607B681B68F8
:100270000C331B687A6864211046984700F08AFBAB
:100280007B681B6A184608F0E1FB7B681B6A18460E
:1002900008F0C0FC0346FB607B685B6A184600F010
:1002A00025F90346FB6007F10C0318460FF0E1FB4C
:1002B0000346002B02D01B4810F09CFF7B68986916
:1002C0007B681B6A0222194602F008F80346FB60AD
:1002D00007F10C0318460FF0CCFB0346002B02D0AD
:1002E000114810F087FF7B68DA697B681B6A194642
:1002F000104603F093F80346FB6007F10C03184621
:100300000FF0B7FB0346002B02D0084810F072FF35
:100310007B681B680C331B687A6840F2E731104633
:100320009847F5E790354100B8354100E435410084
:1003300080B582B000AF786039603B68002B02D096
:1003400038680DF05CFE00BF0837BD4680BD80B543
:1003500082B000AF786079680020FFF7E9FF0837C6
:10036000BD4680BD80B483B000AF7860024B1846B4
:100370000C37BD4680BC70474F03400080B584B049
:1003800000AFF860B9607A60BB68002B03D0796871
:10039000B8680DF025FE00BF1037BD4680BD80B5A2
:1003A00082B000AF786039603A6879680020FFF762
:1003B000E5FF0837BD4680BD80B483B000AF7860EC
:1003C000024B18460C37BD4680BC70479F03400067
:1003D000B0B584B000AF78607B68DC6807F10803D3
:1003E0001846FFF7BFFF054607F10C031846FFF755
:1003F000E3FF03462A467968204601F0CFFE00BF9E
:100400001037BD46B0BD000080B584B000AF786045
:1004100039600DF057FE0346002B03D03149386890
:1004200007F0DAFF7B685B6A1B6808331B687A6831
:10043000526A3968104698470346FB73FB7B83F08A
:100440000103DBB2002B0BD07B689B6A1B6808336F
:100450001B687A68926A3968104698470346FB73AE
:10046000FB7B83F00103DBB2002B07D07B682C33CE
:100470003968184603F0FCFA0346FB73FB7B83F0F4
:100480000103DBB2002B08D07B6803F2E443396838
:10049000184603F0B3FB0346FB73FB7B83F00103B9
:1004A000DBB2002B0BD07B681B6A1B6808331B6810
:1004B0007A68126A3968104698470346FB73FB7BDB
:1004C00083F00103DBB2002B07D038680FF000F88F
:1004D00003461946044810F01DFEFB7B18461037F2
:1004E000BD4680BDF53740000C36410080B588B070
:1004F00002AF78607B685B6907F110022321184620
:1005000008F062FB0346FB603B69FB75FB7D022B39
:100510001BD0022B03DC002B03D0012B0BD00023BC
:10052000FB757B68586AF97D262300932D232A22C8
:1005300000F002FE13E07B68586AF97D25230093E2
:100540002E23292200F0F8FD09E07B68586AF97D26
:10055000242300932C23282200F0EEFD00BFFB682B
:1005600018461837BD4680BD80B584B000AF7860AE
:1005700039607B689B68184608F0E8FA0346FB6020
:1005800007F10C0318460FF064FA0346002B03D062
:10059000386807F0F7FF03E04D21386808F02AF8C3
:1005A00000BF1037BD4680BD80B586B000AFF86093
:1005B000B9607A603B60FB689B6879683A68184666
:1005C00008F0DBFA03467B6107F1140318460FF0CD
:1005D00040FA0346002B06D07B683A681946B86893
:1005E00007F0F2FF0DE0FB689B681B680C331B688B
:1005F000FA6892681046984703461946B86807F0AB
:10060000F9FF00BF1837BD4680BD80B586B000AF8A
:10061000F860B9607A6000233B61FB689B68796889
:1006200007F11002184608F0CFFA03467B6107F184
:10063000140318460FF00DFA0346002B06D07B6812
:100640003A691946B86807F0BFFF0DE0FB689B6880
:100650001B680C331B68FA6892681046984703467B
:100660001946B86807F0C6FF00BF1837BD4680BD01
:1006700080B582B000AF786039607B689B680549BF
:10068000184608F0E5FB386807F07CFF00BF083724
:10069000BD4680BD3036410080B582B000AF786085
:1006A00039607B68D8687B689B680222194601F034
:1006B00015FE386807F066FF00BF0837BD4680BDED
:1006C00080B586B000AFF860B9607A603B60FB68C7
:1006D00098683B6802333A6A194608F04EFA0346B6
:1006E0007B6107F1140318460FF0B3F9034683F05A
:1006F0000103DBB2002B0ED0FB689B681B680C3338
:100700001B68FA6892681046984703461946B8680D
:1007100007F070FF05E03B683A6A1946B86807F0D1
:1007200053FF00BF1837BD4680BD80B586B000AF0F
:10073000F860B9607A603B6000233B61FB689868B1
:100740003B680233194607F110031A4608F03CFAD9
:1007500003467B6107F1140318460FF07AF903464C
:1007600083F00103DBB2002B0ED0FB689B681B6893
:100770000C331B68FA68926810469847034619467E
:10078000B86807F037FF05E03B683A691946B86872
:1007900007F01AFF00BF1837BD4680BD80B584B092
:1007A00000AF786039607B689B68184608F032FAC1
:1007B0000346FB6007F10C0318460FF04AF90346A5
:1007C000002B03D0386807F0DDFE03E058213868BD
:1007D00007F010FF00BF1037BD4680BD80B584B064
:1007E00000AF786039607B68DB6818460DF038FF31
:1007F000034618460EF075F803460133FB60F968AE
:10080000386807F0CFFE00BF1037BD4680BD80B509
:1008100084B000AFF860B9607A607B68013B7B60B0
:10082000FB68DB6818460DF01BFF02467B68DBB2F5
:100830001946104601F036FE0346002B0FD0FB6828
:10084000DB6818460DF00CFF034618460EF049F819
:10085000034601331946B86807F0A4FE03E063219C
:10086000B86807F0C7FE00BF1037BD4680BD000066
:1008700080B582B000AF786039607B68DB6805497D
:10088000184601F0B5FC386807F07CFE00BF083759
:10089000BD4680BD4036410080B582B000AF786073
:1008A00039607B68D8687B689B680222194601F032
:1008B00015FD386807F066FE00BF0837BD4680BDED
:1008C00080B586B000AFF860B9607A60FB681B69DC
:1008D0007A68D2B21146184601F0CCFF03467B611C
:1008E0007B687A691946B86807F06EFE00BF183752
:1008F000BD4680BD80B586B000AFF860B9607A6053
:100900003B60FB6818697B68D9B23B68012201F043
:1009100018FF03467B617A693B689A4206D17B687F
:100920007A691946B86807F04FFE04E07B691946FA
:10093000B86807F05FFE00BF1837BD4680BD80B5C0
:1009400084B000AF786039607B689B68184608F017
:10095000BBF90346FB6007F10C0318460FF079F86A
:100960000346002B03D0386807F00CFE0DE07B68CF
:100970009B681B680C331B687A689268104698471E
:1009800003461946386807F035FE00BF1037BD46EC
:1009900080BD000080B500AF094810F02BFC09486D
:1009A00010F028FC084810F025FC084810F022FC44
:1009B000074810F01FFC024810F01CFC00BF80BD6F
:1009C000503641007036410094364100C436410033
:1009D000E836410080B582B000AF78603960FFF73B
:1009E000D9FF386807F0CEFD00BF0837BD4680BD8F
:1009F00080B582B000AF786039600C4810F08AFB97
:100A00007B689B6B184600F07BFB7B685B6B184632
:100A100000F0CAFE7B689B6A184602F015FE386833
:100A200007F0B0FD00BF0837BD4680BD0437410068
:100A300080B582B000AF78603960114810F0DAFB01
:100A40007B681B6A184601F0A9F87B689B6A184608
:100A500002F024FE7B685B6A184601F0DDFB7B68D0
:100A6000DB6A1B6808331B687A68D26A10469847AD
:100A7000386807F087FD00BF0837BD4680BD00BF5E
:100A80000C37410080B582B000AF7860396008480B
:100A900010F0B0FB7B68DB691B6820331B687A6849
:100AA000D2691046984700BF0837BD4680BD00BFD9
:100AB0002037410090B583B000AF786039607B6823
:100AC00003F1080438680EF078FD03461946204605
:100AD0000EF0AAFC7B6803F10804002138680EF0D0
:100AE00011FD0346194620460EF08CFC0346002BF0
:100AF00006D1002138680EF01BFD0346072B01D1FB
:100B0000012300E00023002B12D07B6803F10804CE
:100B1000012138680EF00CFD0346072B0CBF0123A2
:100B20000023DBB251221946204606F00BFC1FE0E1
:100B3000012138680EF0FCFC0346072B0CBF012393
:100B40000023DBB2002B0CD07B6803F108040021EA
:100B500038680EF0D7FC03461946204606F0AEFC76
:100B600006E07B68083351220021184606F0EAFBB4
:100B7000386807F007FD00BF0C37BD4690BD000088
:100B800080B582B000AF786039600B4B1B7883F082
:100B90000103DAB2084B1A70074B1B78002B01D007
:100BA000064B00E0064B1946064810F0B3FA00BFAA
:100BB0000837BD4680BD00BF0400402040374100DB
:100BC000443741004837410080B586B000AFF86037
:100BD000B9607A60FB689B6818460DF0D4FF034645
:100BE000796818460DF0AAFFFB68DB687A68342143
:100BF000184607F0C2FF03467B6107F1140318464D
:100C00000EF027FF0346002B04D07968B86807F080
:100C1000C9FC0DE0FB68DB681B680C331B68FA68D5
:100C2000D2681046984703461946B86807F0E2FCB8
:100C300000BF1837BD4680BD80B586B000AFF860F4
:100C4000B9607A60FB689B6818460DF09CFF03460C
:100C5000796818460DF07FFFFB68DB687A683521FC
:100C6000184607F08AFF03467B6107F11403184614
:100C70000EF0EFFE0346002B04D07968B86807F049
:100C800091FC0DE0FB68DB681B680C331B68FA689D
:100C9000D2681046984703461946B86807F0AAFC80
:100CA00000BF1837BD4680BD80B586B000AFF86084
:100CB000B9607A60FB689B6818460DF059FF0346DF
:100CC000796818460DF0AEFFFB68DB687A6836215C
:100CD000184607F052FF03467B6107F114031846DC
:100CE0000EF0B7FE0346002B04D07968B86807F011
:100CF00059FC0DE0FB68DB681B680C331B68FA6865
:100D0000D2681046984703461946B86807F072FC47
:100D100000BF1837BD4680BD80B586B000AFF86013
:100D2000B9607A60FB689B6818460DF021FF0346A6
:100D3000796818460DF083FFFB68DB687A68372115
:100D4000184607F01AFF03467B6107F114031846A3
:100D50000EF07FFE0346002B04D07968B86807F0D8
:100D600021FC0DE0FB68DB681B680C331B68FA682C
:100D7000D2681046984703461946B86807F03AFC0F
:100D800000BF1837BD4680BD80B584B000AF786025
:100D900039607B68DB6807F108022321184607F0F9
:100DA00013FF0346FB6007F10C0318460EF051FEDB
:100DB0000346002B04D0BB68002B01D1012300E0C7
:100DC0000023002B04D00649386807F027FC03E015
:100DD0000449386807F022FC00BF1037BD4680BDCB
:100DE000643741007437410080B584B000AF78604B
:100DF00039607B68DB6807F108022321184607F099
:100E0000E3FE0346FB6007F10C0318460EF021FEDB
:100E10000346002B04D0BB68002B01D1012300E066
:100E20000023002B04D00649386807F0F7FB03E0E5
:100E30000449386807F0F2FB00BF1037BD4680BD9B
:100E4000643741007437410080B58CB000AF7860E2
:100E500039607B68DB6807F118022321184607F028
:100E6000B3FE0346FB6107F11C0318460EF0F1FDCB
:100E70000346002B04D0BB69002B01D1012300E005
:100E80000023002B73D000237B6100233B610023F0
:100E9000FB607B68DB6807F114023821184607F015
:100EA00093FE03463B6207F1200318460EF0D1FD86
:100EB0000346002B25D07B68DB6807F1100239213F
:100EC000184607F081FE03467B6207F124031846AB
:100ED0000EF0BFFD0346002B13D07B68DB6807F1E3
:100EE0000C023A21184607F06FFE0346BB6207F179
:100EF000280318460EF0ADFD0346002B01D0012358
:100F000000E00023002B09D07B6803F178007B69A7
:100F100019463B69DAB2FB6801F0ECFE7B6803F12D
:100F200078027B6893F8B4341946104600F0B6F89E
:100F30007B6878333968184601F02AFF0346FB6264
:100F400007F12C0318460EF084FD0346002B03D056
:100F5000386807F009FB0EE07B68103318460DF087
:100F6000D7FD03461946386807F044FB03E00449FF
:100F7000386807F053FB00BF3037BD4680BD00BF67
:100F80007437410080B586B000AF786039607B6807
:100F9000DB6807F10C022321184607F015FE034613
:100FA0003B6107F1100318460EF053FD0346002B7A
:100FB00004D0FB68002B01D1012300E00023002BAB
:100FC00028D07B6803F110027B6893F8B43419468B
:100FD000104600F063F87B681033396818460DF04E
:100FE00051FD03467B6107F1140318460EF031FDF5
:100FF0000346002B03D0386807F0B6FA0EE07B6892
:10100000103318460DF084FD03461946386807F082
:10101000F1FA03E00349386807F000FB00BF183716
:10102000BD4680BD7437410080B582B000AF7860A6
:1010300039607B681033184602F00CF97B6878330E
:10104000184601F03DFE386807F09CFA00BF0837EB
:10105000BD4680BD80B582B000AF786039607B68E6
:1010600093F8B43483F00103DAB27B6883F8B424D4
:101070007B6893F8B434002B01D0054B00E0054B9E
:101080001946054810F046F800BF0837BD4680BD38
:10109000883741008C3741009037410080B483B0DD
:1010A00000AF78600B46FB707B68FA781A7100BF5E
:1010B0000C37BD4680BC704780B483B000AF034698
:1010C000FB71FB79022B0AD0022B0ADC002B02D029
:1010D000012B02D005E0064B04E0064B02E0064B74
:1010E00000E0064B18460C37BD4680BC704700BF79
:1010F000B0374100B8374100C0374100C837410020
:1011000090B583B000AF78607B6893F820301846C4
:10111000FFF7D2FF04467B689B6918460DF001F982
:1011200003461A46214603480FF0F4FF00BF0C3770
:10113000BD4690BDCC37410080B58AB000AF786025
:10114000084611461A460346FB700B46BB70134611
:101150007B70FB78194678680DF01AF8FA7801234D
:10116000232178680DF023F803463B6107F1100353
:1011700018460EF06EFC034687F8273097F82730A4
:1011800007F10C02B97878680DF03FF803467B61EF
:1011900007F1140318460EF05CFC034687F827306D
:1011A0007B68DB69FA68114618460DF095F897F8E8
:1011B000273007F10C02797878680DF026F803469D
:1011C000BB6107F1180318460EF043FC034687F88D
:1011D00027307B68DB69FA68D2B2114618460DF0F9
:1011E0006DF897F8273007F10C0297F830107868FF
:1011F0000DF00BF80346FB6107F11C0318460EF0D7
:1012000028FC034687F827307B689B69FA681146FB
:1012100018460DF079F87B689B69184600F026FBAC
:1012200097F8272007F12003114618460EF0D7FB48
:101230003B6A18462837BD4680BD80B586B002AFF0
:1012400078603960242300932C23282202217868B7
:10125000FFF772FF0346FB6007F10C0318460EF020
:10126000F8FB0346002B03D0386807F08BF90DE03C
:101270007B685B691B680C331B687A68526910468F
:10128000984703461946386807F0B4F900BF10378D
:10129000BD4680BD80B586B002AF78603960262338
:1012A00000932D232A2200217868FFF745FF03468B
:1012B000FB6007F10C0318460EF0CBFB0346002B36
:1012C00003D0386807F05EF90DE07B685B691B6846
:1012D0000C331B687A6852691046984703461946D2
:1012E000386807F087F900BF1037BD4680BD80B56C
:1012F00086B002AF78603960252300932E2329221F
:1013000001217868FFF718FF0346FB6007F10C0323
:1013100018460EF09EFB0346002B03D0386807F0FA
:1013200031F90DE07B685B691B680C331B687A68D8
:1013300052691046984703461946386807F05AF92B
:1013400000BF1037BD4680BD80B586B000AFF860E5
:10135000B9607A60FB689B697A68114618460CF0A0
:10136000D3FFFB685B697A682621184607F005FC05
:1013700003467B6107F1140318460EF06AFB03462F
:10138000002B04D07968B86807F00CF90DE0FB6811
:101390005B691B680C331B68FA68526910469847F2
:1013A00003461946B86807F025F900BF1837BD464F
:1013B00080BD80B586B000AFF860B9607A60FB6828
:1013C0009B697A68114618460CF09EFFFB685B69C2
:1013D0007A682421184607F0D0FB03467B6107F1A9
:1013E000140318460EF035FB0346002B04D0796831
:1013F000B86807F0D7F80DE0FB685B691B680C3331
:101400001B68FA6852691046984703461946B8683F
:1014100007F0F0F800BF1837BD4680BD80B586B034
:1014200000AFF860B9607A60FB68DB6979681846DC
:101430000CF052FFFB685B697A682821184607F0B8
:101440009CFB03467B6107F1140318460EF001FB79
:101450000346002B04D07968B86807F0A3F80DE0C4
:10146000FB685B691B680C331B68FA68526910469D
:10147000984703461946B86807F0BCF800BF18370C
:10148000BD4680BD80B584B000AFF860B9607A60B9
:101490007B68044A044905480FF03CFE00BF103742
:1014A000BD4680BDE4374100F83741003038410087
:1014B00080B586B000AFF860B9607A60FB689B6960
:1014C0007A68114618460CF01FFFFB685B697A6862
:1014D0002521184607F051FB03467B6107F11403F1
:1014E00018460EF0B6FA0346002B04D07968B868A7
:1014F00007F058F80DE0FB685B691B680C331B684C
:10150000FA6852691046984703461946B86807F0CA
:1015100071F800BF1837BD4680BD80B584B000AFFC
:10152000786039607B6802221A767B68D8687B68AD
:101530001B7E1A462C2107F020FB0346FB6007F1B7
:101540000C0318460EF085FA0346002B03D03868CA
:1015500007F018F80DE07B68DB681B680C331B682C
:101560007A68D2681046984703461946386807F0EB
:1015700041F800BF1037BD4680BD80B584B000AFD4
:10158000786039607B6803221A767B68D8687B684C
:101590001B7E1A462C2107F0F0FA0346FB6007F188
:1015A0000C0318460EF055FA0346002B03D038689A
:1015B00006F0E8FF0DE07B68DB681B680C331B68F6
:1015C0007A68D2681046984703461946386807F08B
:1015D00011F800BF1037BD4680BD80B584B000AFA4
:1015E000786039607B6804221A767B68D8687B68EB
:1015F0001B7E1A462C2107F0C0FA0346FB6007F158
:101600000C0318460EF025FA0346002B03D0386869
:1016100006F0B8FF0DE07B68DB681B680C331B68C5
:101620007A68D2681046984703461946386806F02B
:10163000E1FF00BF1037BD4680BD000080B586B019
:1016400002AFF860B9607A603B603B680193064B7B
:1016500000937B68054A064906480FF05BFD00BF12
:101660001037BD4680BD00BF883841003C3841007E
:10167000443841007438410080B584B000AF7860D0
:1016800039607B6898687B68197E7B68DA6900231B
:1016900000F01CFC0346FB6007F10C0318460EF03B
:1016A000D8F90346002B03D0386806F06BFF0CE036
:1016B0007B681B7E19467B68DB691A4605480FF07C
:1016C00029FD6321386806F095FF00BF1037BD463D
:1016D00080BD00BF9038410080B584B000AF786015
:1016E00039607B6898687B68197E7B68DA690023BB
:1016F00000F0ECFB0346FB6007F10C0318460EF00C
:10170000A8F90346002B08D07B689B68184600F0B8
:1017100065FB386806F036FF0CE07B681B7E1946D7
:101720007B68DB691A4605480FF0F4FC63213868D2
:1017300006F060FF00BF1037BD4680BD9038410005
:1017400080B483B000AF0346FB71FB79042B16D045
:10175000042B16DC032B10D0032B12DC022B0AD037
:10176000022B0EDC002B02D0012B02D009E0084B2B
:1017700008E0084B06E0084B04E0084B02E0084B89
:1017800000E0084B18460C37BD4680BC704700BFD0
:10179000C0384100C4384100CC384100D038410045
:1017A000D4384100D838410090B583B000AF78609C
:1017B0007B68DB69122B22D0122B2EDC002B02D08F
:1017C000112B0ED029E07B68DC697B681B7E1846F4
:1017D000FFF7B6FF03461A46214619480FF09AFC58
:1017E00029E07B68DC697B681B7E1846FFF7A8FF51
:1017F00003461A46214613480FF08CFC1BE07B6819
:10180000DC697B681B7E1846FFF79AFF03461A4681
:1018100021460D480FF07EFC0DE07B68DC697B689B
:101820001B7E1846FFF78CFF03461A4621460748E1
:101830000FF070FC00BF00BF0C37BD4690BD00BF6D
:10184000DC38410000394100243941004839410069
:1018500080B483B000AF7860034A7B68136000BF38
:101860000C37BD4680BC70472C02402080B483B04A
:1018700000AF786000BF0C37BD4680BC704780B5B4
:1018800082B000AF78607B680433184603F08CF8B0
:1018900000F01CF87B680C33184600F0A8F87B6851
:1018A00003F21C43184603F04DFE7B6803F5B26358
:1018B000184604F02DFB7A6841F2DC6313441846A5
:1018C00005F068F900BF0837BD4680BD80B485B01B
:1018D00000AF3C4B5B6903F40033C3F34043DBB21E
:1018E000002B1BD1BFF34F8F00BFBFF36F8F00BF23
:1018F000344B0022C3F85022BFF34F8F00BFBFF319
:101900006F8F00BF2F4B5B692E4A43F40033536146
:10191000BFF34F8F00BFBFF36F8F00E000BF294BB5
:101920005B6903F48033C3F30043DBB2002B42D185
:10193000244B0022C3F88420BFF34F8F00BF214BFC
:10194000D3F88030FB60FB685B0BC3F30E03BB6016
:10195000FB68DB08C3F309037B60BB685A0143F6ED
:10196000E07313407A68920716491343C1F8603256
:101970007B685A1E7A60002B14BF01230023DBB260
:10198000002BEAD1BB685A1EBA60002B14BF01239A
:101990000023DBB2002BDBD1BFF34F8F00BF094B1D
:1019A0005B69084A43F480335361BFF34F8F00BF34
:1019B000BFF36F8F00E000BF00BF1437BD4680BC8F
:1019C000704700BF00ED00E080B582B000AF7860E6
:1019D0007B6803F21C43184603F094FD7B680C33CC
:1019E000184600F0ADF800BF0837BD4680BD80B591
:1019F00082B000AF786000F00DF803F077FB7B68F1
:101A00001B6810331B6800217868984700BF0837AF
:101A1000BD4680BD80B400AF094BD3F81431084AED
:101A200043F01003C2F81431054BD3F81431044AC3
:101A300043F48053C2F8143100BFBD4680BC7047E8
:101A40000080084090B589B000AF78600B46FB700D
:101A50000023FB777B6804337B617B69BB617B6917
:101A600003F20C433B611DE0BB69FB60FB681B6834
:101A700008331C68FB7F5A1CFA77FA781946F86815
:101A8000A0470346BB6007F1080318460DF0F1FFBD
:101A90000346002B03D00DF0C3FF03460AE0BB69E9
:101AA0001C33BB61BA693B699A42DDD10DF0ABFFD3
:101AB000034600BF18462437BD4690BD80B588B0A8
:101AC00000AFF860B9607A60FB680433BB61BB6942
:101AD000FB61BB6903F20C437B610CE0FB693B617A
:101AE0007B68002B04D07B683A691146B868984738
:101AF000FB691C33FB61FA697B699A42EED10DF0F8
:101B000082FF034618462037BD4680BD80B483B0AF
:101B100000AF78600B46FB70FB78242B08D8FA786E
:101B20001346DB009B1A9B007A681344043301E0E0
:101B30007B68043318460C37BD4680BC70470000F4
:101B400080B586B000AF786013480FF053FB7B6818
:101B500004333B613B697B613B6903F20C43FB60EF
:101B600010E07B69BB60BB681B6828331B68B868E2
:101B700098470346002B02D0B86803F075FA7B69DA
:101B80001C337B617A69FB689A42EAD100BF00BFCF
:101B90001837BD4680BD00BF6839410080B586B0AA
:101BA00000AF7860134B1B68134A1268194613483C
:101BB0000FF0B0FA7A68124B13443B613B697B61CA
:101BC0003B694833FB600AE07B69BB60BB681B680C
:101BD00019460C480FF09EFA7B6904337B617A69E1
:101BE000FB689A42F0D108480FF004FB00BF183799
:101BF000BD4680BD3402402030024020783941008B
:101C000008400200943941009C39410080B58CB0F5
:101C100000AF786039606C4B1B6801336A4A13600F
:101C20003B685B78112B0FD83B685B781A46796864
:101C300049F20203134451F82330581C796849F2E1
:101C40000203134441F823003B685B78FB853B6843
:101C50009B88BB85FB8D013BFB85FB8D112B19D828
:101C6000FB8D9B030C337A681344BB62BB6A1B6811
:101C70005A1CBB6A1A603B681B78002B0AD0FB8D8C
:101C80009B0310337A6813447B627B6A1B685A1C7F
:101C90007B6A1A60FB8D0F2B3BD8F98D7A6849F26D
:101CA00014030B4452F823303B61BB8D3A699A42CE
:101CB00080F085803B699BB2BA8DD31ABB857B6867
:101CC00003F51033D3F8D020BB8D13447A6802F5A6
:101CD0001032C2F8D030BB8DB3F5805F6FD23B6855
:101CE0001B78002B06D17B6803F5103393F8D830AE
:101CF000002B64D0FA8DBB8D1203134402339B007A
:101D00007A681344FB60FB681B685A1CFB681A6006
:101D100055E0FB8D102B52D10CF03EFCBB8DB3F582
:101D2000805F0FD23B681B78002B0BD0BA8D274BFE
:101D300013449B007A6813443B623B6A1B685A1C3D
:101D40003B6A1A607B6803F51033D3F8D0301B0967
:101D50007A6802F51032C2F8D0307B6803F5103390
:101D6000D3F8D030B3F5805F19D27B6803F5103318
:101D7000D3F8D020164B13449B007A681344BB6100
:101D8000BB691B685A1CBB691A607A68114B134403
:101D90007B617B691B685A1C7B691A6008E07A6862
:101DA0000D4B1344FB61FB691B685A1CFB691A60ED
:101DB0007B6803F510331A460023C2F8D03000BF09
:101DC0003037BD4680BD00BF300240200200010018
:101DD000021001000C4004001040040080B48DB0DB
:101DE00000AF78600023FB627B6808333B623B6A8C
:101DF000BB623B6A03F50033FB611FE0BB6ABB615A
:101E0000BB697B617B697B627B6903F580433B61D6
:101E100007E07B6AFB60FB6800221A607B6A043380
:101E20007B627A6A3B699A42F3D1FB6A5A1CFA6276
:101E3000BA691360BB6A03F58043BB62BA6AFB6987
:101E40009A42DBD17B6803F510331A460023C2F8AF
:101E5000D03000BF3437BD4680BC704780B586B0F7
:101E600000AF786039600023FB754FF47A733B61F3
:101E70007B6803F51033D3F8D430002B12D07B6885
:101E800003F51033D3F8D4303A699A420AD97B6803
:101E900003F51033D3F8D4303A69D21A3B681A608C
:101EA0000123FB757B6803F510331A463B69C2F8C2
:101EB000D430FA7D07F10C03114618460DF08FFD62
:101EC000FB6818461837BD4680BD000080B59AB043
:101ED00002AFF8607A603B600B46FB727B68122BA6
:101EE000D4BF0123002387F85F3097F85F30002BC1
:101EF00000F0EC807B68DBB2013B87F84F30FB7A67
:101F0000032B00F08D80032B00F3D780012B02D030
:101F1000022B32D0D1E07B68002B40F3D28097F8BF
:101F20004F301946F8680CF0CDFAB8620323BB6550
:101F30001BE0BB6D9B00BA6A13441B687B620023E5
:101F40007B650BE0BB6D3B623B6A002B03D0396ABB
:101F500065480FF0DFF87B6D01337B657A6D7B6A36
:101F60009A42EFD3BB6D0133BB65BB6DB3F5805FA8
:101F7000DFD35E480FF03EF9A3E07B68002B40F30F
:101F8000A280FB681B6818460CF02DFA78633B684A
:101F9000002B17D13B461946F868FFF75FFF034651
:101FA0007B6107F1140318460DF053FD0346002B27
:101FB00013D097F84F3001331A46796B4C480FF025
:101FC000A9F80AE03B687A6BB2FBF3F197F84F305F
:101FD00001331A4647480FF09DF897F84F301946DD
:101FE000F8680CF06FFA386303233B6510E03B6D33
:101FF0009B003A6B13441B68FB62FB6A002B04D006
:10200000FA6A396D3C480FF085F83B6D01333B654A
:102010003B6DB3F5805FEAD338480FF0EBF852E040
:102020000CF0A8FAB864FB681B6818460CF0DBF9E2
:102030007864FB685B6818460CF01DFB0346184685
:102040000CF0B1FB38640CF06FFDF8630CF01EFE71
:10205000B8633B68002B1AD13B461946F868FFF776
:10206000FDFE0346BB6107F1180318460DF0F1FCB5
:102070000346002B29D0796C3A6CB86CBB6B01938A
:10208000FB6B009303461E480FF044F81DE03B68CD
:102090007A6CB2FBF3F13B683A6CB2FBF3F03B684D
:1020A000BA6CB2FBF3F2BB6B0193FB6B009313466C
:1020B000024614480FF02EF807E0002387F85F303F
:1020C00004E000BF02E000BF00E000BF97F85F201F
:1020D00007F11C03114618460DF081FCFB691846F8
:1020E0006037BD4680BD00BFA03941009C3941002A
:1020F000A4394100B8394100CC394100D4394100FC
:10210000D8394100083A410080B58AB000AFF86084
:10211000B9601346FB71012387F82730002387F845
:10212000263025E0FA7997F8263013443B623B6A63
:1021300007F114021946B86806F046FD0346BB6174
:1021400007F1180318460DF084FC034687F8273082
:1021500097F82730002B06D097F826307A69194671
:10216000F8680CF0F1F997F82630013387F826303B
:1021700097F82730002B03D097F826300F2BD1D9B2
:1021800097F8272007F11C03114618460DF027FC8D
:10219000FB6918462837BD4680BD000080B584B075
:1021A00000AFF860B9607A603B600E4ABB681360AC
:1021B0000D4A7B681360FB6803F526730B4A1360B6
:1021C000FB6803F526733A68B968184600F002F90F
:1021D000FB680433184600F057F900BF1037BD46BE
:1021E00080BD00BF380240203C0240204002402019
:1021F00080B582B000AF78603960396805480EF06C
:1022000089FF7B680433184600F064F900BF083783
:10221000BD4680BD383A410080B582B000AF7860DD
:102220007B68D3F8BC127B68D3F8B8321A460948E9
:102230000EF070FF7B6803F52673184600F0F6F881
:102240007B680433184600F06FF900BF0837BD46BD
:1022500080BD00BF403A410080B582B000AF7860D9
:102260007B68181D47F662530122182100F069FAB5
:102270007B68012283F8C02200BF0837BD4680BDBD
:1022800080B582B000AF78607B68181D47F6615357
:102290000122182100F055FA7B68002283F8C02241
:1022A00000BF0837BD4680BD80B483B000AF786002
:1022B0007B68012283F8C12200BF0C37BD4680BC79
:1022C000704780B483B000AF78607B68002283F8E9
:1022D000C12200BF0C37BD4680BC704780B58AB0B4
:1022E00000AFF860B9607A60012387F827300023D7
:1022F00087F8263047E097F826307A6813443B6227
:1023000007F110031A46396AB86806F05DFC034607
:102310007B6107F1140318460DF09BFB0346002B6D
:1023200022D0FB68181D3B6997F82610012200F0A7
:1023300008FA0346FB613B69FA699A421ED097F896
:102340002730002B08D0002387F827303B69FA6933
:1023500019461E480EF0DEFEFB68D3F8B8325A1C50
:10236000FB68C3F8B82209E0002387F82730FB6830
:10237000D3F8BC325A1CFB68C3F8BC2297F826304D
:10238000013387F8263097F826301B2BB3D997F8FE
:10239000273083F00103DBB2002B09D0FB68D3F8B0
:1023A000B812FB68D3F8BC321A4609480EF0B2FEE8
:1023B00097F8272007F11803114618460DF00FFB78
:1023C000BB6918462837BD4680BD00BF603A410052
:1023D000A83A410080B485B000AFF860B9607A6077
:1023E000064AFB681360064ABB681360054A7B68AF
:1023F000136000BF1437BD4680BC70474C024020BC
:10240000440240204802402080B483B000AF78608E
:1024100000BF0C37BD4680BC704780B483B000AFAE
:10242000786000BF0C37BD4680BC7047F0B589B0FE
:1024300004AFF860FB681D69FB685E69FB681B6898
:10244000BB60F8680CF08AF97860FB68DC69F868B2
:102450000CF09DF90346002B01D0084B00E0084B1F
:10246000029301947B680093BB6832462946054875
:102470000EF050FE00BF1437BD46F0BDFC3A4100DF
:10248000043B4100103B410080B483B000AF786052
:10249000034A7B68136000BF0C37BD4680BC7047A1
:1024A0005002402080B485B000AF78600B46FB70CE
:1024B000FB78042B94BF01230023FB73FB7B002BD1
:1024C00002D07B68FA781A72FB7B18461437BD4637
:1024D00080BC704780B584B000AF78607B681B7AA1
:1024E000013319460E480EF015FE0023FB730EE073
:1024F000FB7B1946786800F0BDF9B860FB7BBA68D1
:10250000194608480EF006FEFB7B0133FB73FB7B8C
:10251000202BEDD900BF00BF1037BD4680BD00BFE6
:10252000583B4100643B410090B5A5B000AF7860D6
:102530007B681B7A0133194617480EF0EBFD07F153
:1025400008038422002118460EF0EEFF002387F8CE
:102550008F3012E097F88F4097F88F3019467868DF
:1025600000F088F90246A30090333B4443F8882CDE
:1025700097F88F30013387F88F3097F88F30202B02
:10258000E8D907F108032121184600F0E3F900BF5C
:102590009437BD4690BD00BF583B410090B585B013
:1025A00000AF78600023FB730EE0FC7BFB7B1946D9
:1025B000786800F05FF901467A68A31C9B00134419
:1025C0005960FB7B0133FB73FB7B102BEDD90023A0
:1025D000BB7313E0BB7B7A6802339B0013445B68D8
:1025E000BB60BB6843F4FF53BB60B97BBB6802228E
:1025F000786800F0A6F8BB7B0133BB73BB7B102B64
:10260000E8D900BF00BF1437BD4690BD90B585B076
:1026100000AF78600023FB730EE0FC7BFB7B194668
:10262000786800F027F901467A68A31C9B001344E0
:102630005960FB7B0133FB73FB7B102BEDD900232F
:10264000BB7307E0BB7B1946786800F028F8BB7BBA
:102650000133BB73BB7B102BF4D900BF00BF143711
:10266000BD4690BD80B584B000AF78600023FB7399
:102670000DE0FB7B7A6802339B0013445B68F97BB7
:102680000222786800F05DF8FB7B0133FB73FB7B73
:10269000102BEED900BF00BF1037BD4680BD80B5FE
:1026A00082B000AF78600B46FB70FB78102B06D829
:1026B000F9784FF4FF530222786800F042F800BF27
:1026C0000837BD4680BD000080B582B000AF78609D
:1026D0000B46FB70FB78102B05D8F978044B0222CF
:1026E000786800F02EF800BF0837BD4680BD00BFF7
:1026F000E31F000280B584B000AF78600B46FB702A
:102700001346BB700023FB60FB78102B14D8FB78BA
:102710001946786800F0AEF8F860FB6823F4FF53C0
:10272000FB60BB785B01FA681343FB60F978FB68D8
:102730000222786800F005F8FB6818461037BD469D
:1027400080BD80B586B000AFF8607B600B46FB7241
:102750001346BB7200237B61FB7A202B12D8BB7A15
:10276000002B06D0FB7A7A681946F86800F010F85A
:102770007861BB7A022B05D0FB7A1946F86800F025
:1027800079F878617B6918461837BD4680BD00002E
:1027900080B58CB000AFF8600B467A60FB72002306
:1027A000FB62FB7A202B5ED8FB681B7A1A46134625
:1027B0005B001344DB0003F50673FA68134404332B
:1027C000BB6207F1180300221A601A7107F11003A7
:1027D00000221A601A71FB7A254AD35C1A464FF020
:1027E000FF339340DB437B627A687B6A13403B6232
:1027F00097F90B305B005BB243F001035BB2DBB2D5
:102800003B763B6A1B0EDBB27B763B6A1B0CDBB272
:10281000BB763B6A1B0ADBB2FB763B6ADBB23B77DB
:1028200007F1100207F118031946B86A0DF0F0F924
:10283000FB685B681B680C331B68FA685268B96AEE
:10284000104698470346002B0DD07B7C1A06BB7CB4
:102850001B041A43FB7C1B0213433A7D13431A46A5
:102860007B6A1340FB62FB6A18463037BD4680BD69
:10287000D073410080B58AB000AF78600B46FB7022
:1028800000237B62FB78202B46D87B681B7A1A4694
:1028900013465B001344DB0003F506737A681344A8
:1028A00004333B6207F1140300221A601A7107F126
:1028B0000C0300221A601A71FB785B00DBB23B75D7
:1028C00007F10C0207F114031946386A0DF0A0F95C
:1028D0007B685B681B680C331B687A685268396ACE
:1028E000104698470346002B16D0FB780D4AD35C60
:1028F0001A464FF0FF339340DB43FB617B7B1A06A4
:10290000BB7B1B041A43FB7B1B0213433A7C134320
:102910001A46FB6913407B627B6A18462837BD461E
:1029200080BD00BFD073410080B485B000AFF860B7
:10293000B9607A60FA68BB6822FA03F301217A6809
:1029400001FA02F2013A134018461437BD4680BC22
:102950007047000080B586B002AF786039603B6890
:10296000112B01D911233B602B480EF0D3FB002320
:10297000FB6006E0F96829480EF0CCFBFB680133E8
:10298000FB60FA683B689A42F4D325480EF032FCAB
:102990003B6800937B6808221221224800F052F81D
:1029A0003B6800937B6803220F211F4800F04AF820
:1029B0003B6800937B6801220E211C4800F042F81E
:1029C0003B6800937B6801220D21194800F03AF81A
:1029D0003B6800937B6808220521164800F032F816
:1029E0003B6800937B6803220221134800F02AF819
:1029F0003B6800937B6801220121104800F022F817
:102A00003B6800937B68012200210D4800F01AF812
:102A100000BF1037BD4680BD283D4100383D410014
:102A2000243D4100403D41004C3D4100583D4100A6
:102A3000643D4100703D41007C3D4100B83C410097
:102A4000883D410080B586B000AFF860B9607A601B
:102A50003B60F96810480EF05DFB00237B6110E0DD
:102A60003B681A1D3A601B687A68B9681846FFF718
:102A70005BFF0346194609480EF04CFB7B690133A6
:102A80007B617A693B6A9A42EAD305480EF0B2FB51
:102A900000BF1837BD4680BD943D4100383D410020
:102AA000243D410080B584B000AF78607B681B7D19
:102AB000092B00F0D280092B00F3DE80082B00F0F8
:102AC000C580082B00F3D880072B00F08380072BEC
:102AD00000F3D280062B6DD0062B00F3CD80052BA2
:102AE00000F08480052B00F3C780042B4ED0042B0C
:102AF00000F3C280032B26D0032B00F3BD80022BF2
:102B000012D0022B00F3B880002B00F0C880012BFC
:102B100040F0B280786800F013F9786800F04BF963
:102B20007B6802221A75BDE07B68002283F82220B0
:102B30007B6893F822301946786800F0CDF97B68FD
:102B400004221A75AEE07B6893F822301946786843
:102B500000F0EEF97B6893F822300133DAB27B683B
:102B600083F822207B6893F822300F2B0AD87B68E9
:102B700093F822301946786800F0AEF97B68042299
:102B80001A758FE07B6808221A758BE07B6893F8D2
:102B900020207B6883F821207B6893F822107B68D3
:102BA00093F821301A46786800F0F2F97B68062223
:102BB0001A7577E000F038FA02467B685A627B6843
:102BC0005A6A7B689B691A447B685A627B68072251
:102BD0001A7567E000F028FAF8607B685B6AFA68AB
:102BE0009A425ED37B6805221A755AE07B6893F897
:102BF00021301946786800F0F1F9B8607B68DB692C
:102C0000BA689A4203DD7B6803221A754AE07B6842
:102C100093F82130013BDAB27B6883F821207B688E
:102C200093F82130002B0DD07B6893F822107B683D
:102C300093F821301A46786800F0AAF97B680622DA
:102C40001A752FE07B6803221A752BE0786800F074
:102C5000BFF87B6809221A7524E07B68D3F8383402
:102C6000002B05D07B68D3F83834184605F08AFC71
:102C70007B6800221A7515E0786800F0A9F87B6877
:102C8000D3F83834002B06D07B68D3F838340B499E
:102C9000184605F0C3FC7B6800221A7502E000BFED
:102CA00000E000BF7B681B7D002B14BF01230023C5
:102CB000DBB218461037BD4680BD00BF9C3D4100C9
:102CC00080B582B000AF7860786800F039F87B6832
:102CD0001B7D19467B6893F822301A467B6893F86F
:102CE000213003480EF016FA00BF0837BD4680BDFC
:102CF000A83D410080B485B000AFF860B9603B608A
:102D00001346FB71BB68002B01D0BB6800E0C823F1
:102D1000FA689361FB79002B01D0FA7900E0632215
:102D2000FB6883F820203B68002B01DD3B6800E056
:102D30001423FA68D36100BF1437BD4680BC7047C6
:102D400080B582B000AF78607B6899697B6893F842
:102D500020301A467B68DB690A480EF0DBF97B6895
:102D6000184600F068F90346002B03D006480EF021
:102D700041FA02E005480EF0CDF900BF0837BD4624
:102D800080BD00BFE43D41003C3E4100403E41006B
:102D900080B582B000AF786039607B683A68C3F86C
:102DA00038247B6801221A750CF02DFE0346184664
:102DB0000837BD4680BD80B582B000AF78607B68C3
:102DC0009B681846FFF722FC00BF0837BD4680BD50
:102DD00080B582B000AF7860786800F007F8786856
:102DE00000F032F800BF0837BD4680BD80B586B020
:102DF00000AF78607B689B681846FFF733FC0023C0
:102E0000FB7518E07B689868FB7D7A68134493F83B
:102E10002824FB7D1946FFF76DFC3861FB7D0233EA
:102E2000FB607B681B69F9683A69184605F0A5FEE6
:102E3000FB7D0133FB75FB7D0F2BE3D900BF00BF8A
:102E40001837BD4680BD000080B588B000AF7860FF
:102E50001D480EF0CFF91D480EF05CF90023FB77FA
:102E600008E0FB7F0133194619480EF053F9FB7F48
:102E70000133FB77FB7F0F2BF3D913480EF0BAF920
:102E800014480EF047F97B6803F585637B617B6925
:102E9000BB617B6910333B610AE0BB691B78FB7344
:102EA000FB7B19460A480EF035F9BB690133BB615B
:102EB000BA693B699A42F0D103480EF09BF900BF12
:102EC0002037BD4680BD00BF3C3E4100443E41002E
:102ED000543E41005C3E410080B582B000AF786056
:102EE0000B46FB707B68184600F0A5F80346002BE4
:102EF00006D0FB78013319460C480EF00BF902E0BE
:102F00002E200EF019F97B6828334FF480620021DF
:102F100018460EF009FB7B689B68FA781146184644
:102F2000FFF7D2FB00BF0837BD4680BD6C3E4100B5
:102F300080B582B000AF78600B46FB707B689B6801
:102F4000FA7811461846FFF7AAFB7B682833184623
:102F500000F016FC0246FB78D1B27A6813440A46A8
:102F600083F828247B68184600F065F80346002B98
:102F700008D0FB787A68134493F82834194603483C
:102F80000EF0C8F800BF0837BD4680BD743E410052
:102F900080B582B000AF78600B46FB701346BB7003
:102FA0007B689B68BA78F9781846FFF7A3FB7B68C3
:102FB000184600F040F80346002B04D0BB781946B1
:102FC00005480EF0A7F87B68DB6818460BF00BFA93
:102FD00000BF0837BD4680BD803E410080B584B04B
:102FE00000AF78600B46FB707B68DB6818460BF01F
:102FF000FAF90346FB607B68184600F01CF80346AC
:10300000002B03D0F96807480EF084F8FA787B6843
:103010000A32F96843F82210FB6818461037BD469B
:1030200080BD00BF883E410080B400AF0023184639
:10303000BD4680BC704780B483B000AF78607B68C9
:103040001B7918460C37BD4680BC704780B582B0EE
:1030500000AF786039607B683A681A667B68DB6825
:103060001846FFF79BFA7B689B681846FFF7F4F851
:103070007B681B69012118460BF07BFB7B685B6951
:103080001846FEF7ABFE7B685B6918460BF03AFA10
:103090007B689B681846FFF707F97B689B681846B2
:1030A0000BF0F5FA00BF0837BD4680BD80B584B08F
:1030B00000AF78607B689B6818460BF0F6FA034611
:1030C000FB73FB7B002B17D07B689B6818460BF0CB
:1030D000FBFA0346002B05D07B689B681846FFF778
:1030E000F0F809E07B689B681846FFF7DDF87B681D
:1030F0009B6818460BF0CBFAFB7B18461037BD4691
:1031000080BD80B582B000AF78607B689B68184650
:10311000FFF7B6F87B68DB681846FFF7A3FA7B6811
:103120001B69002118460BF024FB786800F00AF8B0
:10313000786800F067F87B6800221A6600BF0837DD
:10314000BD4680BD80B588B000AF786029480DF0DD
:10315000E1FF0023FB611AE0F96927480DF0DAFF6F
:103160007B685B69FA69D2B2114618460BF0AAF97E
:1031700003464FF48051184600F084F801467B68FE
:10318000FA69083243F82210FB690133FB61FB69DD
:103190000F2BE1DD19480EF02DF819480DF0BAFF9C
:1031A0007B6820337B617B69BB617B6940333B611A
:1031B00009E0BB691B68FB60F9680F480DF0AAFFC6
:1031C000BB690433BB61BA693B699A42F1D17B6840
:1031D000DB69002B04D07B68DB69184605F0D2F967
:1031E0007B685B691846FEF7F9FD00BF2037BD46D6
:1031F00080BD00BF8C3E4100943E41009C3E41009A
:10320000A03E410080B584B000AF78600023FB6031
:1032100010E0FB683C33BB607B689869B9687B68E9
:10322000FA68083253F822301A4605F0A6FCFB680B
:103230000133FB60FB680F2BEBDD7B6858697B6813
:103240009B693C221946FEF75FFF00BF1037BD4661
:1032500080BD000090B583B000AF78607B681C6EC5
:103260007B681B6918460BF079FA03461A4621461B
:1032700003480DF04FFF00BF0C37BD4690BD00BFA7
:10328000A83E410080B487B000AF78603960002369
:103290007B6100233B610023FB6015E0FB689B0022
:1032A0007A6813441B68FA6802FB03F37A691344D3
:1032B0007B61FB689B007A6813441B683A6913447E
:1032C0003B61FB680133FB60FA683B689A42E5D3D7
:1032D0003B69002B01D1002303E07A693B69B2FB13
:1032E000F3F318461C37BD4680BC704780B483B0EA
:1032F00000AF78607B6801221A7600BF0C37BD46AC
:1033000080BC704780B483B000AF786000BF0C37DA
:10331000BD4680BC7047000080B485B000AF034656
:10332000FB80FB8807EE903AB8EE677ADFED126A11
:10333000C7EE267A9FED117A67EE877AC7ED037A9A
:10334000D7ED037A9FED0E7A67EE877A9FED0D7ABF
:1033500077EEC77AC7ED027AD7ED027AB6EE007A39
:1033600077EE877AFDEEE77A17EE903A1846143733
:10337000BD4680BC704700BF00FC7F4633335340DE
:103380000AC48C46213E5B4780B582B000AF002363
:103390007B607B681B0A9BB21846FFF7BDFF0346A4
:1033A00018460837BD4680BD80B582B000AF786052
:1033B0007B681433184600F0C1F97B68283318463F
:1033C000FFF794FF00F03AF900BF0837BD4680BD13
:1033D00080B584B000AFF860B9607A603B60FB688C
:1033E0001433B96818460BF01DFCFB681433796878
:1033F00018460BF024FCFB682833396818460BF09C
:103400009DFBFB682833B96918460BF0A4FBFB68E9
:10341000FA691A6000BF1037BD4680BD90B595B0FF
:1034200002AF78603960012387F8473007F1200345
:103430001A463621386805F0C7FB03467B6207F160
:10344000240318460CF005FB0346002B08D097F820
:103450004730002B14BF0123002387F8473002E0D8
:10346000002387F8473007F11C031A4637213868D4
:1034700005F0AAFB0346BB6207F1280318460CF0CF
:10348000E8FA0346002B08D097F84730002B14BF0A
:103490000123002387F8473002E0002387F84730F4
:1034A00007F118031A463421386805F08DFB0346EE
:1034B000FB6207F12C0318460CF0CBFA0346002BF5
:1034C00008D097F84730002B14BF0123002387F85A
:1034D000473002E0002387F8473007F114031A460B
:1034E0003521386805F070FB03463B6307F1300374
:1034F00018460CF0AEFA0346002B08D097F8473078
:10350000002B14BF0123002387F8473002E000237B
:1035100087F8473007F110031A463221386805F062
:1035200053FB03467B6307F1340318460CF091FA12
:103530000346002B08D097F84730002B14BF012317
:10354000002387F8473002E0002387F8473097F8D8
:103550004730002B0BD0396AF869BC697B693A693E
:1035600001920093234602467868FFF731FF07F186
:103570000C031A463021386805F026FB0346BB636E
:1035800007F1380318460CF064FA0346002B08D004
:1035900097F84730002B14BF0123002387F84730EA
:1035A00002E0002387F84730FB6807EE903AF8EE18
:1035B000E77ADFED206A87EEA67AB0EE470A7868F0
:1035C0000BF014FB07F108031A463121386805F0A7
:1035D000FBFA0346FB6307F13C0318460CF039FA8B
:1035E0000346002B08D097F84730002B14BF012367
:1035F000002387F8473002E0002387F84730BB6894
:1036000007EE903AF8EEE77ADFED0B6A87EEA67ADE
:10361000B0EE470A78680BF0F7FA97F8472007F101
:103620004003114618460CF0DAF93B6C18464C374B
:10363000BD4690BD0024744900007A4480B400AFB8
:1036400000BFBD4680BC704790B583B000AF7860C6
:1036500078680BF0A3FA03460E4A82FB031252115C
:10366000DB17D41A78680BF099FA0346094A82FBF3
:1036700003125111DA178A1A642101FB02F29A1A15
:103680007B689B68214604480DF044FD00BF0C3761
:10369000BD4690BD1F85EB51D83E4100F0B58BB0C3
:1036A00006AFF860F8680BF079FA03461F4A82FB10
:1036B00003125211DB17D51AF8680BF06FFA0346A4
:1036C0001A4A82FB03125111DA178C1A642204FB86
:1036D00002F29C1AFB689E68F8680BF06BFAB860FF
:1036E000F8680BF075FA7860FFF74EFE0146104B54
:1036F0001B68104A12680492039302917B6801933D
:10370000BB6800933346224629460B480DF002FD64
:10371000FB681433184600F01DF8FB682833184680
:10372000FFF7F0FD00BF1437BD46F0BD1F85EB511C
:10373000580240205C024020F03E410080B483B03B
:1037400000AF78607B6801221A7300BF0C37BD465A
:1037500080BC704780B582B000AF7860054B1B68B5
:10376000054A1268194605480DF0D4FC00BF083719
:10377000BD4680BD6002402064024020403F4100C1
:1037800080B485B000AF78604FF48073FB60FD2398
:10379000FB6019E0FB689B007A6813441A68FB68B9
:1037A00001339B0079680B441B681A44FB680233A1
:1037B0009B0079680B441B681344BB60BB68142BE7
:1037C00006DCFB68013BFB60FB68002BE2DC00E0F1
:1037D00000BFFB68023318461437BD4680BC7047F3
:1037E00080B400AF024B1846BD4680BC704700BF96
:1037F000FC56410080B483B000AF0346FB71FB79F7
:10380000502B04D8FB79054A52F8233000E0044BD2
:1038100018460C37BD4680BC704700BF685B41004E
:10382000645B410080B582B000AF78603960396870
:10383000786800F098FB034618460837BD4680BDFF
:1038400080B582B000AF786039607B681B680C334C
:103850001B6839687868984700BF0837BD4680BD47
:1038600080B582B000AF786039607B681B68103328
:103870001B6839687868984700BF0837BD4680BD27
:1038800080B582B000AF786039607B681B68143304
:103890001B6839687868984700BF0837BD4680BD07
:1038A00080B584B000AF78603960022138680BF0D1
:1038B00055FEF8607B681B6818331B68FA68396826
:1038C0007868984700BF1037BD4680BD80B584B08A
:1038D00000AF78603960022138680BF03FFEF86075
:1038E0007B681B681C331B68FA68396878689847DE
:1038F00000BF1037BD4680BD80B584B000AF786092
:103900003960022138680BF029FEF8607B681B687B
:1039100020331B68FA6839687868984700BF103709
:10392000BD4680BD80B584B000AF786039600221AB
:1039300038680BF013FEF8607B681B6824331B6843
:10394000FA6839687868984700BF1037BD4680BD6F
:1039500080B584B000AF78603960022138680BF020
:10396000FDFDF8607B681B6828331B68FA683968BE
:103970007868984700BF1037BD4680BD80B582B0DB
:1039800000AF786039603968786800F02EFB034634
:1039900018460837BD4680BD80B582B000AF78605C
:1039A00039607B681B680C331B68396878689847F6
:1039B00000BF0837BD4680BD80B582B000AF7860DB
:1039C00039607B681B6810331B68396878689847D2
:1039D00000BF0837BD4680BD80B582B000AF7860BB
:1039E00039607B681B6814331B68396878689847AE
:1039F00000BF0837BD4680BD80B582B000AF78609B
:103A000039607B681B6818331B6839687868984789
:103A100000BF0837BD4680BD80B582B000AF78607A
:103A200039607B681B681C331B6839687868984765
:103A300000BF0837BD4680BD90B585B000AF786047
:103A40003960012138680BF089FDF860022138687F
:103A50000BF084FDB8607B681B6820331C68BB6872
:103A6000FA6839687868A04700BF1437BD4690BD32
:103A700080B582B000AF786039603968786800F04E
:103A8000F6FA034618460837BD4680BD80B584B0B7
:103A900000AF78603960032138680BF05FFDF86093
:103AA0007B681B680C331B68FA683968786898472C
:103AB00000BF1037BD4680BD80B584B000AF7860D0
:103AC0003960032138680BF049FDF8607B681B689A
:103AD00010331B68FA6839687868984700BF103758
:103AE000BD4680BD80B584B000AF786039600321E9
:103AF00038680BF033FDF8607B681B6814331B6873
:103B0000FA6839687868984700BF1037BD4680BDAD
:103B100080B584B000AF78603960032138680BF05D
:103B20001DFDF8607B681B6818331B68FA683968EC
:103B30007868984700BF1037BD4680BD80B582B019
:103B400000AF786039607B681B681C331B6839687C
:103B50007868984700BF0837BD4680BD80B582B001
:103B600000AF786039607B681B6820331B68396858
:103B70007868984700BF0837BD4680BD80B582B0E1
:103B800000AF786039607B681B6824331B68396834
:103B90007868984700BF0837BD4680BD80B582B0C1
:103BA00000AF786039607B681B6828331B68396810
:103BB0007868984700BF0837BD4680BD80B582B0A1
:103BC00000AF786039607B681B682C331B683968EC
:103BD0007868984700BF0837BD4680BD80B582B081
:103BE00000AF786039607B681B6830331B683968C8
:103BF0007868984700BF0837BD4680BD80B582B061
:103C000000AF786039603968786800F072FA03466E
:103C100018460837BD4680BD90B585B000AF7860C6
:103C20003960012138680BF099FCF860022138688E
:103C30000BF094FCB8607B681B680C331C68BB6895
:103C4000FA6839687868A04700BF1437BD4690BD50
:103C500080B584B000AF78603960012138680BF01E
:103C60007DFCF8607B681B6810331B68FA68396854
:103C70007868984700BF1037BD4680BD80B582B0D8
:103C800000AF786039607B681B6814331B68396843
:103C90007868984700BF0837BD4680BD90B589B0A9
:103CA00002AF78603960022138680BF057FC786108
:103CB000032138680BF052FC3861042138680BF09E
:103CC0004DFCF8607B681B6818331C68FB68009328
:103CD0003B697A6939687868A04700BF1C37BD46E0
:103CE00090BD90B585B000AF78603960022138682A
:103CF0000BF034FCF860032138680BF02FFCB8603F
:103D00007B681B681C331C68BB68FA683968786874
:103D1000A04700BF1437BD4690BD80B582B000AF4C
:103D2000786039607B681B6820331B683968786865
:103D3000984700BF0837BD4680BD80B582B000AF50
:103D4000786039607B681B6824331B683968786841
:103D5000984700BF0837BD4680BD80B582B000AF30
:103D6000786039607B681B6828331B68396878681D
:103D7000984700BF0837BD4680BD80B582B000AF10
:103D8000786039607B681B682C331B6839687868F9
:103D9000984700BF0837BD4680BD80B584B000AFEE
:103DA00078603960012138680BF0D8FBF8607B68D7
:103DB0001B6830331B68FA6839687868984700BF19
:103DC0001037BD4680BD80B582B000AF78603960E5
:103DD0007B681B6834331B6839687868984700BF74
:103DE0000837BD4680BD80B582B000AF78603960CD
:103DF0007B681B6838331B6839687868984700BF50
:103E00000837BD4680BD90B585B000AF7860396099
:103E1000022138680BF0A2FBF860032138680BF030
:103E20009DFBB8607B681B683C331C68BB68FA6804
:103E300039687868A04700BF1437BD4690BD80B58B
:103E400084B000AF78603960022138680BF086FBDF
:103E5000F8607B681B6840331B68FA6839687868CB
:103E6000984700BF1037BD4680BD80B582B000AF17
:103E7000786039607B681B6844331B6839687868F0
:103E8000984700BF0837BD4680BD80B582B000AFFF
:103E9000786039603968786800F06DF90346184633
:103EA0000837BD4680BD80B582B000AF786039600C
:103EB0007B681B680C331B6839687868984700BFBB
:103EC0000837BD4680BD80B582B000AF78603960EC
:103ED0007B681B6810331B6839687868984700BF97
:103EE0000837BD4680BD80B582B000AF78603960CC
:103EF0007B681B6814331B6839687868984700BF73
:103F00000837BD4680BD80B582B000AF78603960AB
:103F10007B681B6818331B6839687868984700BF4E
:103F20000837BD4680BD80B582B000AF786039608B
:103F30007B681B681C331B6839687868984700BF2A
:103F40000837BD4680BD80B582B000AF786039606B
:103F50007B681B6820331B6839687868984700BF06
:103F60000837BD4680BD80B588B000AF7860396045
:103F700038680BF0ADFA0346DAB207F10C031146CC
:103F8000184600F03BF9FB68002B06D13B6903F0B3
:103F90000103002B01D1012300E0002383F0010382
:103FA000FB77FB7F002B1BD07A6807F1140307F126
:103FB0000C0103C983E80300BB6903F00103002B74
:103FC00001D17B6906E0BB695B1013441B6879690A
:103FD0000B441B68B96949100A4439681046984770
:103FE000FB7F18462037BD4680BD80B588B000AF46
:103FF0007860396038680BF06BFA0346DAB207F183
:104000000C031146184600F02BF9FB68002B06D173
:104010003B6903F00103002B01D1012300E00023E1
:1040200083F00103FB77FB7F002B1BD07A6807F13D
:10403000140307F10C0103C983E80300BB6903F013
:104040000103002B01D17B6906E0BB695B101344BF
:104050001B6879690B441B68B96949100A443968BF
:1040600010469847FB7F18462037BD4680BD80B577
:1040700088B000AF7860396038680BF029FA0346E1
:10408000DAB207F10C031146184600F01BF9FB6881
:10409000002B06D13B6903F00103002B01D1012362
:1040A00000E0002383F00103FB77FB7F002B1BD094
:1040B0007A6807F1140307F10C0103C983E80300D0
:1040C000BB6903F00103002B01D17B6906E0BB69EA
:1040D0005B1013441B6879690B441B68B96949106C
:1040E0000A44396810469847FB7F18462037BD467A
:1040F00080BD80B588B000AF7860396038680BF05B
:10410000E7F90346DAB207F10C031146184600F04E
:104110000BF9FB68002B06D13B6903F00103002B70
:1041200001D1012300E0002383F00103FB77FB7F33
:10413000002B1BD07A6807F1140307F10C0103C9A7
:1041400083E80300BB6903F00103002B01D17B6905
:1041500006E0BB695B1013441B6879690B441B685C
:10416000B96949100A44396810469847FB7F1846D8
:104170002037BD4680BD80B588B000AF786039601B
:1041800038680BF0A5F90346DAB207F10C031146C3
:10419000184600F0FBF8FB68002B06D13B6903F0E2
:1041A0000103002B01D1012300E0002383F0010370
:1041B000FB77FB7F002B1BD07A6807F1140307F114
:1041C0000C0103C983E80300BB6903F00103002B62
:1041D00001D17B6906E0BB695B1013441B687969F8
:1041E0000B441B68B96949100A443968104698475E
:1041F000FB7F18462037BD4680BD000080B487B0E5
:1042000000AF78600B46FB70134B3B61124B7B6138
:10421000124BFB6010E07B69BB60BB681B7AFA78CD
:104220009A4206D17B68BA6892E8030083E80300EB
:104230000CE07B690C337B617A69FB689A42EAD1B6
:104240007B6800221A607B6800225A6078681C37FD
:10425000BD4680BC704700BFAC5C41000C5D4100B6
:1042600080B487B000AF78600B46FB70134B3B61A6
:10427000124B7B61124BFB6010E07B69BB60BB683B
:104280001B7AFA789A4206D17B68BA6892E80300F2
:1042900083E803000CE07B690C337B617A69FB687F
:1042A0009A42EAD17B6800221A607B6800225A6039
:1042B00078681C37BD4680BC704700BF0C5D41006C
:1042C000545D410080B487B000AF78600B46FB704E
:1042D000134B3B61124B7B61124BFB6010E07B691F
:1042E000BB60BB681B7AFA789A4206D17B68BA68D1
:1042F00092E8030083E803000CE07B690C337B61E8
:104300007A69FB689A42EAD17B6800221A607B686E
:1043100000225A6078681C37BD4680BC704700BFD9
:10432000545D4100CC5D410080B487B000AF78603F
:104330000B46FB70134B3B61124B7B61124BFB60D6
:1043400010E07B69BB60BB681B7AFA789A4206D1A1
:104350007B68BA6892E8030083E803000CE07B699D
:104360000C337B617A69FB689A42EAD17B68002250
:104370001A607B6800225A6078681C37BD4680BC92
:10438000704700BFCC5D4100805E410080B487B0C3
:1043900000AF78600B46FB70134B3B61124B7B61A7
:1043A000124BFB6010E07B69BB60BB681B7AFA783C
:1043B0009A4206D17B68BA6892E8030083E803005A
:1043C0000CE07B690C337B617A69FB689A42EAD125
:1043D0007B6800221A607B6800225A6078681C376C
:1043E000BD4680BC704700BF805E4100C85E410092
:1043F00080B483B000AF78607B68084A934201D1F3
:10440000282306E07B68064A934201D11D2300E081
:104410001D2318460C37BD4680BC7047004006403F
:1044200000C0034080B584B000AF78607868FFF7C3
:10443000DFFFF86000BF1037BD4680BD80B483B099
:1044400000AF78607B6800221A607B68114A5A606E
:104450007B68114A9A607B684FF48022DA607B683F
:1044600002221A747B6801225A747B6801229A74B2
:104470007B680022DA747B6801221A757B6801224E
:104480005A757B6801229A7500BF0C37BD4680BC07
:10449000704700BF80D1F008808D5B0080B485B08C
:1044A00000AF786039600023FB603B68DB7C002B49
:1044B00002D04FF0004200E000223B6859683B68A0
:1044C0009B68B1FBF3F3013B1B029BB21A433B68B1
:1044D0001B7C1B0603F070631A433B685B7C1B0765
:1044E00003F040531A433B68DB68134343F4000373
:1044F000FB607B68FA685A603B681B7D002B02D02A
:104500004FF0807200E000223B681B6813433A685A
:10451000527D002A02D04FF0007200E000221A43C0
:104520007B689A603B689B7D1B0203F4407343F0F9
:104530000C027B68C3F8942000BF1437BD4680BCD2
:10454000704780B483B000AF78607B681B6B1846FF
:104550000C37BD4680BC704780B584B000AF786032
:1045600039607868FFF7EDFF034603F08073C3F30B
:104570000063DBB2002B2CD17B6801221A60396802
:104580007868FFF78BFF7B68144A93420DD10023B4
:10459000FB6007E0124AFB68002142F82310FB6829
:1045A0000133FB60FB680F2BF4D97B680D4A934203
:1045B00010D10023FB6008E0094AFB68103300219A
:1045C00042F82310FB680133FB60FB680F2BF3D923
:1045D00000E000BF1037BD4680BD00BF00C00340F3
:1045E0006C0240200040064080B485B000AF786087
:1045F0000B46FB707B685B68FB60FB78FF2B04D18C
:10460000FB6843F08003FB6007E0FB6823F08F0347
:10461000FB60FB78FA681343FB607B68FA685A60BA
:1046200000BF1437BD4680BC704780B483B000AF74
:1046300078607B6800221A707B6801225A7000BF84
:104640000C37BD4680BC704780B487B000AFF860BF
:104650000B467A607B8100237B61FB681B6E7B616C
:104660007B89012202FA03F3DB437A6913407B6101
:104670007B681B78002B04D07B89012202FA03F3AC
:1046800000E000237A6913437B61FB687A691A664C
:10469000FB685B6D7B617B895B00032202FA03F39D
:1046A000DB437A6913407B617B685B781A467B89C0
:1046B0005B0002FA03F31A467B6913437B61FB68D4
:1046C0007A695A6500BF1C37BD4680BC704780B40C
:1046D00083B000AF78600B467B8013463B807A88BE
:1046E0007B685A663B88C3F309027B68DA6600BFC1
:1046F0000C37BD4680BC704780B483B000AF786093
:104700007B6800221A707B6820225A707B68FF2227
:104710005A807B6840F6FF729A8000BF0C37BD4616
:1047200080BC704780B485B000AF786039603B686A
:104730001B78002B01D0012300E000233A68527857
:104740001343FB607B68FA681A673B685B881A460C
:104750003B689B881B041A437B685A6700BF143769
:10476000BD4680BC7047000080B483B000AF786065
:104770007B68084A934201D1012306E07B68064A20
:10478000934201D1002300E0002318460C37BD46B8
:1047900080BC70470040064000C0034080B483B036
:1047A00000AF786039603B68184A934203D17B6858
:1047B000164A5A6226E03B680B2B0FDC3B680B2B3A
:1047C00004D17B684FF400625A621BE03B6801220F
:1047D00002FA03F31A467B685A6213E03B680E2B19
:1047E00008DC3B680C33012202FA03F31A467B68AB
:1047F0005A6207E03B680F33012202FA03F31A46BC
:104800007B685A620C37BD4680BC7047FF0F00477B
:1048100080B586B000AFF860B9607A60FB70F86868
:10482000FFF7A2FF7861BB6807497A691201134458
:104830007A6841F82320B968F868FFF7AFFF00BF36
:104840001837BD4680BD00BF6C02402080B483B0E5
:1048500000AF78600B467B807A887B685A667B68FD
:104860009B6E18460C37BD4680BC704780B500AFC4
:104870000B210548FFF7EAFF0346044A1360044B87
:1048800001221A7000BF80BD00C00340F00240202A
:10489000EC02402080B483B000AF7860044A7B68AB
:1048A0001A607B6818460C37BD4680BC704700BF55
:1048B0001479410080B582B000AF78607B681846FB
:1048C000FFF7E8FF034A7B681A607B6818460837E1
:1048D000BD4680BD9C76410080B58CB000AF78604D
:1048E0002648FFF79FFD07F1180300221A605A605F
:1048F0009A60DA601A615A6107F118031846FFF7E7
:104900009DFD07F1180319461C48FFF725FE0021FD
:104910001A48FFF769FE0023BB8207F1140318460B
:10492000FFF783FE00237B7507F114031A460B2162
:104930001248FFF789FE4FF400720B210F48FFF772
:10494000C6FE07F10C0300221A609A8007F10C03DF
:104950001846FFF7D1FE01233B7307F10C031946FC
:104960000648FFF7DFFE0123054A0B210348FFF746
:104970004FFF00BF3037BD4680BD00BF00C00340C1
:104980006D48400080B483B000AF78603960054B5B
:104990001A683B681A60012318460C37BD4680BC74
:1049A000704700BFF002402080B582B000AF786051
:1049B00000F08CF800F014F800F02EF8054B064AD1
:1049C0001A60064B4FF457321A6100BF0837BD46D4
:1049D00080BD00BF0800402080D1F00800060E40D6
:1049E00080B400AF0A4B0B4A9A6200E000BF084B4C
:1049F0009B6E03F00203C3F3400383F00103DBB2B9
:104A0000002BF3D100BF00BFBD4680BC704700BF84
:104A100000060E40013F182080B400AF284B294A01
:104A20001A6000E000BF264B9B6803F00103C3F34C
:104A3000000383F00103DBB2002BF3D1224B1B6B8D
:104A4000214A23F07003136300E000BF1E4B9B6EEE
:104A500003F00803C3F3C00383F00103DBB2002BB0
:104A6000F3D1194B1B6B23F44073174A43F4807343
:104A7000136300E000BF144B9B6E03F00803C3F305
:104A8000C00383F00103DBB2002BF3D10E4B1B6B91
:104A900023F003030C4A43F00203136300E000BF5A
:104AA000094B9B6E03F00803C3F3C00383F00103BB
:104AB000DBB2002BF3D100BF00BFBD4680BC704706
:104AC000000C0E400006000400060E4080B400AF4B
:104AD000054B4FF400425A60044B4FF400425A60B9
:104AE00000BFBD4680BC704750180E4000190E40F4
:104AF00080B400AF024B1846BD4680BC704700BF73
:104B000080D1F00880B483B000AF78607B681F2B41
:104B100005D801227B689A40074B1A6106E07B6842
:104B2000203B01229A40044BC3F8002100BF0C3700
:104B3000BD4680BC704700BF00060E4080B483B005
:104B400000AF78607B6801221A6000BF0C37BD4659
:104B500080BC704780B483B000AF786039603B6838
:104B6000002B03D07B683A685A6002E07B683A68A1
:104B70005A6000BF0C37BD4680BC704780B483B01C
:104B800000AF786039603B68012B05D83B6803F0C3
:104B900001027B681A6100E000BF0C37BD4680BC93
:104BA000704780B483B000AF786039607B683A6842
:104BB000C3F8942000BF0C37BD4680BC704700008E
:104BC00080B483B000AF7860044A7B681A607B6869
:104BD00018460C37BD4680BC704700BF887941003D
:104BE00080B582B000AF78607B681846FFF7E8FFB9
:104BF000034A7B681A607B6818460837BD4680BD4B
:104C0000CC76410080B582B000AF78600948FFF7EC
:104C100095FF00210748FFF79DFF00210548FFF79A
:104C2000ADFF0A210348FFF7BCFF00BF0837BD46B0
:104C300080BD00BF0000044080B483B000AF786046
:104C40003960012318460C37BD4680BC7047000010
:104C500080B483B000AF7860044A7B681A607B68D8
:104C600018460C37BD4680BC704700BFA079410094
:104C700080B584B000AFF8607A601A460B46FB72CC
:104C80001346BB72FB681846FFF7E2FF1E4AFB683B
:104C90001A60FB687A685A603B7E1C4A52F82320EF
:104CA000FB689A603B7F01229A40FB68DA60FB68F0
:104CB000FA7A1A74FB68BA7A5A74FB683A7E9A7464
:104CC000FB683A7FDA74FB6897F820201A75FB6856
:104CD00000225A75FB6897F824209A75FB6897F8AC
:104CE0002820DA75FB6897F82C201A76FB689B68F9
:104CF000002B03D12121064805F031FDFB68184641
:104D00001037BD4680BD00BFE8764100C85E410057
:104D1000DC5E410080B582B000AF78600B46FB706E
:104D20001346BB707B689B68002B36D07B681B7C6E
:104D3000FA789A4203D00AF073FE034631E07B68AA
:104D4000DB68002B03D10AF06BFE034629E07B6889
:104D50005B7CBA789A4220D378680AF0D6F9034689
:104D6000002B10D07B681B7E002B06D07B681B6855
:104D700014331B687868984705E07B681B68183314
:104D80001B68786898477B68987C7B68D97C7B68CF
:104D90001A7D7B689B7D00F0B9F80AF034FE03466B
:104DA00000BF18460837BD4680BD80B483B000AF51
:104DB00078607B689B68002B0BD07B689B68DA6B04
:104DC0007B68DB681340002B14BF01230023DBB298
:104DD00000E0002318460C37BD4680BC704780B405
:104DE00083B000AF78607B689B68002B07D07B683E
:104DF0009B687A68D2681A63BFF34F8F00BF00BF09
:104E00000C37BD4680BC704780B483B000AF78607B
:104E10007B689B68002B07D07B689B687A68D268A8
:104E20005A63BFF34F8F00BF00BF0C37BD4680BC35
:104E3000704780B483B000AF78607B689B68002BBC
:104E40001CD07B689B68DA6B7B68DB681340002BA7
:104E50000CBF01230023DBB2002B07D07B689B68CB
:104E60007A68D2681A63BFF34F8F07E07B689B684C
:104E70007A68D2685A63BFF34F8F00BF00BF0C3708
:104E8000BD4680BC704780B483B000AF78607B685B
:104E90009B68002B0FD07B689B687A68D2681A6386
:104EA000BFF34F8F00BF7B689B687A68D2685A63F4
:104EB000BFF34F8F00BF00BF0C37BD4680BC7047AB
:104EC00080B483B000AF786039607B689B68002B4A
:104ED00016D012E07B689B687A68D2681A63BFF3C9
:104EE0004F8F00BF7B689B687A68D2685A63BFF3B4
:104EF0004F8F00BF3B68013B3B603B68002BE9D113
:104F000000BF0C37BD4680BC7047000090B486B02F
:104F100000AF0446084611461A462346FB71034675
:104F2000BB710B467B7113463B71FB794D4A52F8BE
:104F30002330FB60BB79012202FA03F3BB607B796B
:104F4000002B03D1FB68BA681A602EE0FB681B6F68
:104F50007B61FB685B6F3B617B79022B02D07B79C5
:104F6000042B04D17A69BB6813437B6104E0BB68FE
:104F7000DB437A6913407B617B79032B02D07B7919
:104F8000042B04D13A69BB6813433B6104E0BB685E
:104F9000DB433A6913403B61FB687A691A67FB6837
:104FA0003A695A67FB68BA685A607B79002B11D15D
:104FB0003B79032B02DC002B04DA0BE0043B022BD1
:104FC00008D803E0FB68BA685A6103E0FB68BA6876
:104FD0001A6100BF3B79062B06D0062B14DC012B8F
:104FE00002D0022B08D00FE0FB68BA68C3F890200B
:104FF000FB68BA685A660FE0FB68BA681A66FB6815
:10500000BA68C3F8942007E0FB68BA681A66FB68C0
:10501000BA68C3F8902000BF3B79053B012B03D849
:10502000FB68BA681A6503E0FB68BA685A6500BF96
:105030003B79032B09D1FB68D3F80021BB68DB4324
:105040001A40FB68C3F8002107E0FB68D3F8002191
:10505000BB681A43FB68C3F8002100BF1837BD4680
:1050600090BC7047C85E41002DE9F04184B002AFAA
:1050700078607B681B7D002B10D07B689B7C194679
:105080007B68DB7C1A467B681B7D18467B685B6807
:105090000093034613480CF03DF81EE07B689B7CB0
:1050A0001D467B68DB7C1E467B689B7D98467B6843
:1050B0005C687B681B6810331B68786898470346F8
:1050C000002B01D0012300E000230193009443460C
:1050D0003246294604480CF01DF800BF0837BD468B
:1050E000BDE8F081445F4100605F410080B500AFE2
:1050F0000A20FFF707FD0B20FFF704FD0C20FFF748
:1051000001FD1020FFF7FEFC1120FFF7FBFC00BFA4
:1051100080BD000080B483B000AF0346FB7197F9F7
:105120000730002B0BDBFB7903F01F02064997F9D0
:1051300007305B09012000FA02F241F8232000BF8A
:105140000C37BD4680BC704700E100E080B483B0FE
:1051500000AF0346FB7197F90730002B12DBFB7998
:1051600003F01F020A4997F907305B09012000FA92
:1051700002F2203341F82320BFF34F8F00BFBFF36B
:105180006F8F00BF00BF0C37BD4680BC704700BFAB
:1051900000E100E080B483B000AF0346FB7197F9F3
:1051A0000730002B0CDBFB7903F01F02074997F94E
:1051B00007305B09012000FA02F2603341F8232036
:1051C00000BF0C37BD4680BC704700BF00E100E067
:1051D00080B483B000AF03463960FB7197F90730A4
:1051E000002B0ADB3B68DAB20C4997F90730520111
:1051F000D2B20B4483F800230AE03B68DAB20849D4
:10520000FB7903F00F03043B5201D2B20B441A7630
:1052100000BF0C37BD4680BC704700BF00E100E016
:1052200000ED00E080B584B000AFF860B9607A604E
:10523000FB68D3F858317A68B968184606F034FB31
:105240000346012B0CBF01230023DBB218461037A5
:10525000BD4680BD80B584B000AFF860B9607A60AB
:10526000FB68D3F8580107F1080100237A6806F0BB
:1052700007F80346012B0CBF01230023DBB21846BD
:105280001037BD4680BD80B582B000AF7860396010
:105290007B68D3F8583102223968184606F046F97F
:1052A0000346012B0CBF01230023DBB2184608374D
:1052B000BD4680BD80B582B000AF786039607B6844
:1052C000D3F8580139460023022205F0D5FE0346E3
:1052D000012B0CBF01230023DBB218460837BD4663
:1052E00080BD000080B582B000AF7860054A7B6861
:1052F0001A607B68184600F069F87B681846083722
:10530000BD4680BD8060410080B582B000AF78604E
:105310007868FFF7E7FF4FF4AE7178680AF094FC05
:105320007B6818460837BD4680BD000080B584B054
:1053300002AF78607B68184600F038F8194A7B683D
:105340001A607B6804335422002118460CF0ECF8F4
:105350007B6858334FF48072002118460CF0E4F853
:105360007B680022C3F858217B6803F158027B68F0
:105370000433002100910421402005F009FE02467B
:105380007B68C3F858217B68D3F85831002B03D1D0
:105390001521054805F0E3F97B6818460837BD4636
:1053A00080BD00BF806041007C5F410080B483B05D
:1053B00000AF7860044A7B681A607B6818460C3737
:1053C000BD4680BC704700BFA060410080B483B080
:1053D00000AF7860044A7B681A607B6818460C3717
:1053E000BD4680BC704700BFA060410080B582B060
:1053F00000AF78607868FFF7E9FF042178680AF069
:1054000023FC7B6818460837BD4680BD80B483B056
:1054100000AF0346FB71FB79002B01D1034B00E089
:10542000002318460C37BD4680BC70470C00402056
:1054300080B582B000AF0A4B1B687B607B68002B95
:1054400003D0786800F022F905E01520FFF77EFE12
:105450001520FFF79FFE00BF0837BD4680BD00BF87
:10546000F402402080B483B000AF7860044A7B68C7
:105470001A607B6818460C37BD4680BC704700BF79
:10548000447A410080B584B000AFF8600B467A6082
:10549000FB72FB681846FFF7E5FF174AFB681A60C6
:1054A000FB68FA7A1A71FB687A689A60FB7A184688
:1054B000FFF7ACFF0246FB68DA60FB6800221A7453
:1054C000FB6800225A61FB6818331846FFF72EFF6D
:1054D000FB68DB68002B03D13721084805F03FF952
:1054E000FB681B79002B02D1054AFB681360FB683F
:1054F00018461037BD4680BD1C774100E85F41006B
:10550000F402402080B586B002AF78607B68DB682B
:10551000002B0FD07B68DB689B68FB607B681B7986
:1055200019460223019300230093044BFA680448B0
:105530000BF0F0FD00BF1037BD4680BD80841E001B
:105540004C60410080B582B000AF78601520FFF755
:10555000D9FA786800F072F8786800F013F87B6880
:105560001B79002B02D1064A7B6813607B680022FE
:105570005A61786800F02CF800BF0837BD4680BD3E
:10558000F402402080B584B000AF78607B68DB68AF
:10559000002B16D07B68DB681B68FB60FFF7A8FA5E
:1055A00003460A4AA2FB0323DB0C1B0203F47F43DE
:1055B000BB60BB6843F00202FB681A63FB68112200
:1055C0005A6000BF1037BD4680BD00BF83DE1B435D
:1055D00080B586B000AF78607B68DB68002B29D08F
:1055E0007B68DB681B687B617B68DB681B79FB740D
:1055F0007B68DB689B68FB607B691B6843F001028A
:105600007B691A6097F913301846FFF79FFD97F9E9
:105610001330F9681846FFF7DBFD7B6903225A61F6
:1056200097F913301846FFF7B5FD97F91330184670
:10563000FFF770FD00BF1837BD4680BD80B584B050
:1056400000AF78607B68DB68002B1AD07B68DB6872
:105650001B68FB607B68DB681B79FB7297F90B307A
:105660001846FFF773FDFB6840F20F729A6197F9D5
:105670000B301846FFF78EFD97F90B301846FFF7F1
:1056800049FD00BF1037BD4680BD000080B586B023
:1056900000AF78607B68DB68002B29D00023FB60BB
:1056A0007B68DB681B687B617B691B693B613B69CD
:1056B00003F00203002B02D0786800F061F83B6928
:1056C00003F00103002B02D0786800F017F807F10F
:1056D0000C031946786800F099F8FB68002B07D096
:1056E000054B4FF080521A60BFF34F8FBFF36F8F9F
:1056F00000BF1837BD4680BD04ED00E080B586B020
:1057000000AF78607B68DB68002B35D07B68DB6896
:105710001B687B617B699B68FB747B685B69002B02
:1057200009D07B685B6918460AF04AFA0346002BE9
:1057300001D0012300E00023002B1AD07B685B69B5
:1057400018460AF002FAF860FB68002B14D07B6858
:105750005B6918460AF051FA0346FB72FB7AFA6855
:105760001344FA7C1A707B685B6918460AF007FAE2
:1057700002E07B6901229A6100BF1837BD4680BDF7
:1057800080B586B000AF78607B68DB68002B39D0CD
:105790007B68DB681B687B617B685B69002B09D0D9
:1057A0007B685B6918460AF0F9F90346002B01D0C3
:1057B000012300E00023002B21D07B685B691846A1
:1057C0000AF0B8F938613B69002B14D07B685B693B
:1057D00018460AF007FA0346FB73FB7B3A69134449
:1057E0001B78BB73BA7B7B69DA607B685B691846A0
:1057F0000AF0B6F906E07B6902229A6102E07B6951
:1058000002229A6100BF1837BD4680BD80B582B0C4
:1058100000AF786039607B685B69002B0CD07B68D7
:105820005B6918460AF0CCF9034683F00103DBB24A
:10583000002B01D0012300E00023002B07D03968A2
:10584000786800F008F83968786800F030F800BF30
:105850000837BD4680BD80B584B000AF7860396040
:105860007B685B69002B1BD07B685B69FB607B6896
:1058700000225A61F8680AF052F903461A68143295
:10588000126818469047FB681B6808331B68F86865
:10589000984703461A6814321268396818469047C8
:1058A0007868FFF7CBFE00BF1037BD4680BD80B5DE
:1058B00084B000AF78603960786809F036FC034640
:1058C000002B1DD00023FB607B68183307F10C010F
:1058D0003A681846FFF7A6FC0346002B10D0FA687A
:1058E0007B685A617B685B6918460AF018F90346C1
:1058F0001A6818321268184690477868FFF768FEF1
:1059000000BF1037BD4680BD80B584B000AF786061
:10591000786809F00AFC0346002B1DD00023FB60C9
:105920007B68183307F10C0211461846FFF7ABFCF1
:105930000346002B10D0FA687B685A617B685B696C
:1059400018460AF0ECF803461A681832126818462E
:1059500090477868FFF73CFE00BF1037BD4680BD1A
:1059600080B584B000AF786039600023FB733B687A
:10597000002B19D07B68183339681846FFF79AFC5A
:105980000346002B10D07868FFF7BEFF3B681B680A
:1059900008331B683868984703461A68083212684B
:1059A000184690470123FB73FB7B18461037BD4612
:1059B00080BD000080B483B000AF0346FB7197F94F
:1059C0000730002B0BDBFB7903F01F02064997F928
:1059D00007305B09012000FA02F241F8232000BFE2
:1059E0000C37BD4680BC704700E100E080B483B056
:1059F00000AF0346FB7197F90730002B12DBFB79F0
:105A000003F01F020A4997F907305B09012000FAE9
:105A100002F2203341F82320BFF34F8F00BFBFF3C2
:105A20006F8F00BF00BF0C37BD4680BC704700BF02
:105A300000E100E080B483B000AF0346FB7197F94A
:105A40000730002B0CDBFB7903F01F02074997F9A5
:105A500007305B09012000FA02F2603341F823208D
:105A600000BF0C37BD4680BC704700BF00E100E0BE
:105A700080B483B000AF03463960FB7197F90730FB
:105A8000002B0ADB3B68DAB20C4997F90730520168
:105A9000D2B20B4483F800230AE03B68DAB208492B
:105AA000FB7903F00F03043B5201D2B20B441A7688
:105AB00000BF0C37BD4680BC704700BF00E100E06E
:105AC00000ED00E080B584B000AFF860B9607A60A6
:105AD000FB68D3F8D8307A68B968184605F0E4FE58
